:020000040800F2
:10000000580C002081080008E9080008E9080008E9
:10001000E9080008E9080008E908000800000000F5
:10002000000000000000000000000000E9080008D7
:10003000E908000800000000E9080008B909000804
:10004000E9080008E9080008E9080008E9080008CC
:10005000E9080008E9080008C5090008E9080008DF
:10006000E9080008E9080008E9080008E9080008AC
:10007000E9080008E9080008E9080008E90800089C
:10008000E9080008E9080008E9080008E90800088C
:10009000E9080008E9080008E9080008ED09000877
:1000A000E9080008E9080008E9080008E90800086C
:1000B000E9080008E9080008E9080008E90800085C
:1000C000E9080008E9080008E9080008E90800084C
:1000D000E9080008E9080008E9080008E90800083C
:1000E000E9080008E9080008E9080008E90800082C
:1000F000E9080008E9080008E9080008E90800081C
:10010000E9080008E9080008E9080008E90800080B
:10011000E9080008E9080008E9080008E9080008FB
:10012000E9080008E9080008E9080008E9080008EB
:10013000E9080008E9080008E9080008E9080008DB
:10014000E9080008E9080008E9080008E9080008CB
:10015000E9080008E9080008E9080008E9080008BB
:10016000E9080008E9080008E9080008E9080008AB
:10017000E9080008E9080008E9080008E90800089B
:10018000E9080008E908000880B586B000AF022041
:10019000012100F0EBFCC0233B6100233B750023F1
:1001A000FB7503237B7507F110031D48194601F009
:1001B000B5FB4FF48040012100F014FD0120062121
:1001C00000F030F84023BB600123BB7300233B7376
:1001D00010237B7307F10803184601F0FBFC012094
:1001E000072100F01FF88023BB600123BB730023AD
:1001F0003B7310237B7307F10803184601F0EAFCF8
:1002000017233B710123FB7100237B710023BB711A
:100210003B1D184601F082FD1837BD4680BD00BF6A
:100220000004024090B484B000AF03460A46FB715C
:100230001346BB710023FB60BB7903F003039B00F3
:100240000F2202FA03F3FB601649BB799B08DBB26D
:100250001846144ABB799B08DBB2023352F82320BC
:10026000FB68DB431A40831C41F823200D48BB790F
:100270009B08DBB21C460B4ABB799B08DBB20233FE
:1002800052F82320F979BB7903F003039B0001FAAC
:1002900003F31A43A31C40F823201037BD4690BC3B
:1002A000704700BF0038014080B483B000AF034600
:1002B0003960FB7197F90730002B0BDA0D49FB7998
:1002C00003F00F03043B3A68D2B21201D2B20B44DE
:1002D0001A7609E0084997F907303A68D2B2120154
:1002E000D2B20B4483F800230C37BD465DF8047B83
:1002F000704700BF00ED00E000E100E080B582B093
:1003000000AF78607B68B3F1807F01D3012311E0F7
:100310000A4A7B6823F07F43013B53604FF0FF3074
:100320000F21FFF7C1FF054B00229A60034B072204
:100330001A60002318460837BD4680BD10E000E073
:1003400080B500AF00BF064B1B68064AA2FB032323
:100350009B0C1846FFF7D2FF0346002BF3D180BD5C
:100360003C04002083DE1B4380B400AF064B1B68B7
:10037000002B04D0044B1B68013B034A1360BD46AD
:100380005DF8047B704700BF5004002080B400AFCC
:10039000064B4FF47A721A6000BF044B1B68002BA7
:1003A000FBD1BD465DF8047B704700BF50040020C0
:1003B00080B582B000AF786001E0FFF7E7FF7B68AF
:1003C0005A1E7A60002BF8D10837BD4680BD00BFA9
:1003D00080B58AB000AF7860396000237B6200236B
:1003E0003B620023FB610023BB617B681B8A9BB2DD
:1003F0007B627B6A23F440537B623B68DB881A464E
:100400007B6A13437B627B6A9AB27B681A827B6841
:100410009B899BB27B627B6A23F4B05323F00C036D
:100420007B623B689A883B681B8913439AB23B689E
:100430005B8913439BB21A467B6A13437B627B6AD8
:100440009AB27B689A817B689B8A9BB27B627B6A4B
:1004500023F440737B623B689B891A467B6A134393
:100460007B627B6A9AB27B689A8207F1080318461E
:1004700000F0D2FA7B68314A934203D07B68304A5D
:10048000934202D17B693B6201E03B693B627B683E
:100490009B899BB29BB21BB2002B0CDA3A6A1346C3
:1004A0009B0013449A001A443B681B685B00B2FB34
:1004B000F3F3FB610BE03A6A13469B0013449A0086
:1004C0001A443B681B689B00B2FBF3F3FB61FB69BA
:1004D0001C4AA2FB03235B091B017B627B6A1B098D
:1004E000642202FB03F3FA69D31ABB617B689B8920
:1004F0009BB29BB21BB2002B0CDABB69DB00323320
:10050000104AA2FB03235B0903F007037A6A134333
:100510007B620BE0BB691B0132330A4AA2FB032357
:100520005B0903F00F037A6A13437B627B6A9AB21A
:100530007B681A812837BD4680BD00BF001001408E
:10054000001401401F85EB5180B483B000AF786088
:100550000B46FB70FB78002B08D07B689B899BB215
:1005600043F400539AB27B689A8107E07B689B89C9
:100570009BB223F400539AB27B689A810C37BD4634
:100580005DF8047B704700BF80B483B000AF786033
:100590000B467B807B88C3F308039AB27B689A8002
:1005A0000C37BD465DF8047B704700BF80B485B052
:1005B00000AF78600B467B800023FB737B681B8851
:1005C0009AB27B8813409BB2002B02D00123FB73AD
:1005D00001E00023FB73FB7B18461437BD465DF832
:1005E000047B704780B586B000AF0120012100F088
:1005F000BDFA4FF00050012100F0D6FA30233B61E4
:1006000003233B750023FB7507F1100310481946BF
:1006100001F084F900F076F83C233B600023FB6096
:1006200000237B603B460020194600F079F83B46EA
:100630001020194600F074F80020012100F0A2F803
:100640001020012100F09EF81837BD4680BD00BF84
:100650000000024080B584B000AF0346FB80B7F9CC
:1006600006300C22114601228A40013A93FBF2F136
:1006700002FB01F29B1AFB810C23013B012202FACF
:1006800003F39AB2B7F90E30D90F0B445B109BB24B
:100690009BB21344BB810C23013B012202FA03F3FA
:1006A0009AB2B7F90E30D90F0B445B109BB29BB2D4
:1006B000D31A7B81BA897B891046194600F004F869
:1006C0001037BD4680BD00BF80B582B000AF034685
:1006D0000A46FB801346BB80FB880020194600F0C9
:1006E0009BF8BB880020194600F0B0F800200121DB
:1006F00000F06CF81020012100F068F80837BD46C2
:1007000080BD00BF80B500AF4FF00050012100F068
:1007100087FA4FF00050002100F082FA80BD00BF40
:1007200080B485B000AF786039600023FB6000239F
:10073000BB60134B1B68FB607B6840F6FE7202FADD
:1007400003F3DB43FA681340FB603B681A683B68BD
:100750005B681A433B689B681A433B68DB6813433A
:10076000BB607B68BA6802FA03F3FA681343FB6064
:10077000034AFB6813601437BD465DF8047B70477D
:100780000074004080B483B000AF78600B46FB700B
:10079000FB78002B09D00C490B4B1A687B680120B1
:1007A00000FA03F313430B6009E00749064B1A688C
:1007B0007B68012000FA03F3DB4313400B600C3726
:1007C000BD465DF8047B70470074004080B483B080
:1007D00000AF78600B46FB70FB78002B0AD00D4908
:1007E0000C4B5A687B681B0918460123834013434E
:1007F0004B600AE00749074B5A687B681B0918469B
:1008000001238340DB4313404B600C37BD465DF84A
:10081000047B70470074004080B485B000AF7860FE
:100820000B467B800023FB60074BFB60FA687B680C
:1008300013440833FB60FB681A467B881360143747
:10084000BD465DF8047B70470074004080B485B0FD
:1008500000AF78600B467B800023FB60074BFB609A
:10086000FA687B6813441433FB60FB681A467B8884
:1008700013601437BD465DF8047B70470074004078
:1008800080B582B000AF124B7B60124B3B6007E03B
:100890003B681A1D3A607A68111D796012681A6007
:1008A0003B680D4A9342F3D30C480D494FF00002C8
:1008B0008842B8BF40F8042BFADBDFF82800016853
:1008C00041F47001016000F013F80837BD4680BDA7
:1008D0005F20000800000020500400205004002089
:1008E0005804002088ED00E080B400AFFEE700BFB0
:1008F00080B500AF00F01AF809E00A4B1A7822F030
:1009000001021A70084840F6FF7101F0F7F8054B34
:100910001B7803F00103DBB2002BEED16420FFF75C
:1009200047FDE9E75404002001F0FFFF80B500AF68
:10093000FFF706FD01F052FA154800F037FF1548A1
:1009400000F034FF144800F031FF144800F02EFF8F
:10095000134800F02BFF00F09FF9124800F026FF2B
:1009600000F0B6F9104800F021FF00F077FF0F48C3
:1009700000F01CFFFFF708FC0D4800F017FFFFF721
:1009800031FE034800F012FF0A4800F00FFF80BD5F
:10099000701E0008741E0008A81E0008DC1E000857
:1009A000001F0008181F0008341F0008601F0008FF
:1009B0007C1F0008941F000880B500AFFFF7D4FC2F
:1009C00080BD00BF80B500AF012001F075F903467E
:1009D000002B07D0012001F093F9034B1A7842F065
:1009E00001021A7080BD00BF5404002080B500AF22
:1009F000402001F061F90346002B02D0402001F0B5
:100A00007FF9802001F058F90346002B02D08020A6
:100A100001F076F980BD00BF80B489B000AF786086
:100A20000023BB6100237B610023FB6102233B6148
:100A30000023FB600223BB60484B9B6803F00C0360
:100A4000BB61BB69042B07D0082B09D0002B3FD119
:100A50007B68434A1A603FE07B68424A1A603BE089
:100A60003E4B5B6803F480039B0DFB603B4B5B6874
:100A700003F03F03BB60FB68002B0DD0394ABB6815
:100A8000B2FBF3F2354B596847F6C0730B409B0934
:100A900003FB02F3FB610CE0314ABB68B2FBF3F2EB
:100AA0002E4B596847F6C0730B409B0903FB02F3BA
:100AB000FB612A4B5B6803F440331B0C01335B0082
:100AC0003B61FA693B69B2FBF3F27B681A6003E0B1
:100AD0007B68234A1A6000BF204B9B6803F0F00339
:100AE000BB61BB691B09BB611F4ABB6913441B780F
:100AF000DBB27B617B681A687B69DA407B685A608D
:100B0000164B9B6803F4E053BB61BB699B0ABB6156
:100B1000154ABB6913441B78DBB27B617B685A685A
:100B20007B69DA407B689A600C4B9B6803F46043F6
:100B3000BB61BB695B0BBB610B4ABB6913441B7890
:100B4000DBB27B617B685A687B69DA407B68DA607C
:100B50002437BD465DF8047B704700BF0038024073
:100B60000024F40040787D010000002080B483B0B0
:100B700000AF78600B46FB70FB78002B06D009496C
:100B8000084B1A6B7B6813430B6306E00549054B62
:100B90001A6B7B68DB4313400B630C37BD465DF873
:100BA000047B70470038024080B483B000AF7860A7
:100BB0000B46FB70FB78002B06D00949084B1A6CDA
:100BC0007B6813430B6406E00549054B1A6C7B6890
:100BD000DB4313400B640C37BD465DF8047B704764
:100BE0000038024080B483B000AF78600B46FB70E1
:100BF000FB78002B06D00949084B5A6C7B681343DD
:100C00004B6406E00549054B5A6C7B68DB43134097
:100C10004B640C37BD465DF8047B704700380240DA
:100C200080B483B000AF78600B46FB70FB78002B7C
:100C300006D00949084B1A6A7B6813430B6206E029
:100C40000549054B1A6A7B68DB4313400B620C377E
:100C5000BD465DF8047B70470038024080B483B025
:100C600000AF78600B46FB70FB78002B06D009497B
:100C7000084B5A6A7B6813434B6206E00549054BF3
:100C80005A6A7B68DB4313404B620C37BD465DF804
:100C9000047B70470038024080B582B000AF082066
:100CA0000121FFF763FF4FF470433B6001233B7169
:100CB0000023BB7103237B710023FB713B46034878
:100CC000194600F02BFE0837BD4680BD000C0240DF
:100CD00080B586B000AF01200121FFF747FF012357
:100CE0003B6100233B7503237B750023FB7507F1F4
:100CF00010031448194600F011FE4FF48040012102
:100D0000FFF770FF00200021FFF78CFA0123BB6082
:100D10000123BB7300233B730C237B7307F1080390
:100D2000184600F057FF06233B710123FB71002397
:100D30007B710023BB713B1D184600F0EFFF183795
:100D4000BD4680BD0000024080B588B000AF0220E3
:100D50000121FFF70BFF01200121FFF707FF4FF4EF
:100D600080700121FFF73EFF0123BB6103233B7726
:100D70000023FB7707F118031848194600F0CEFD51
:100D80000423BB6103233B770023FB7707F11803A0
:100D90001348194600F0C2FD00F04EF83B461846D5
:100DA00000F0ACF800233B6000237B7100233B6123
:100DB0000023FB600023BB6000233B713B460948D6
:100DC000194600F047F80748012100F0B5F805483A
:100DD000022100F0CFF92037BD4680BD000402405B
:100DE000000002400020014080B582B000AF034601
:100DF0003960FB71FB790F4819460122012300F08D
:100E0000B7F80C4800F07EF900BF0A48022100F054
:100E100097F90346002BF8D0064800F083F9034603
:100E20001A463B681A800348022100F0A3F90837EC
:100E3000BD4680BD0020014080B500AF4FF48070FA
:100E40000121FFF70BFF4FF480700021FFF706FF31
:100E500080BD00BF80B485B000AF786039600023EA
:100E6000FB600023FB727B685B68FB60FB6823F020
:100E7000407323F48073FB603B681B791A023B6864
:100E80001B681343FA681343FB607B68FA685A6077
:100E90007B689B68FB60FA68174B1340FB603B68FC
:100EA0001A693B68DB681A433B689B681A433B68D6
:100EB0005B795B001343FA681343FB607B68FA6855
:100EC0009A607B68DB6AFB60FB6823F47003FB605D
:100ED0003B681B7D013BDAB2FB7A1343FB72FB7A62
:100EE0001B05FA681343FB607B68FA68DA62143703
:100EF000BD465DF8047B7047FDF7FFC080B483B04A
:100F000000AF78607B6800221A607B6800221A714B
:100F10007B6800225A717B6800229A607B680022FD
:100F2000DA607B6800221A617B6801221A750C372F
:100F3000BD465DF8047B704780B483B000AF786035
:100F40000B46FB70FB78002B06D07B689B6843F058
:100F500001027B689A6005E07B689B6823F00102D0
:100F60007B689A600C37BD465DF8047B704700BF14
:100F700080B485B000AF7860084611461A46034633
:100F8000FB700B46BB7013467B700023FB60002395
:100F9000BB60FB78092B23D97B68DB68FB60FB789F
:100FA000A3F10A0213465B001344072202FA03F37B
:100FB000BB60BB68DB43FA681340FB607978FB7861
:100FC000A3F10A0213465B00134401FA03F3BB606A
:100FD000FA68BB681343FB607B68FA68DA601EE05E
:100FE0007B681B69FB60FA7813465B001344072299
:100FF00002FA03F3BB60BB68DB43FA681340FB6093
:101000007978FA7813465B00134401FA03F3BB6066
:10101000FA68BB681343FB607B68FA681A61BB78A7
:10102000062B21D87B685B6BFB60BB785A1E13468E
:101030009B0013441F2202FA03F3BB60BB68DB432F
:10104000FA681340FB60F978BB785A1E13469B0080
:10105000134401FA03F3BB60FA68BB681343FB60F7
:101060007B68FA685A6347E0BB780C2B21D87B6811
:101070001B6BFB60BB78DA1F13469B0013441F22D7
:1010800002FA03F3BB60BB68DB43FA681340FB6002
:10109000F978BB78DA1F13469B00134401FA03F377
:1010A000BB60FA68BB681343FB607B68FA681A632D
:1010B00022E07B68DB6AFB60BB78A3F10D0213467C
:1010C0009B0013441F2202FA03F3BB60BB68DB439F
:1010D000FA681340FB60F978BB78A3F10D02134660
:1010E0009B00134401FA03F3BB60FA68BB68134327
:1010F000FB607B68FA68DA621437BD465DF8047BF2
:10110000704700BF80B483B000AF78607B689B6895
:1011100043F080427B689A600C37BD465DF8047BE3
:10112000704700BF80B483B000AF78607B68DB6C31
:101130009BB218460C37BD465DF8047B704700BF74
:1011400080B485B000AF78600B46FB700023FB7362
:101150007B681A68FB781340002B02D00123FB73D5
:1011600001E00023FB73FB7B18461437BD465DF896
:10117000047B704780B483B000AF78600B46FB708F
:10118000FB78DA437B681A600C37BD465DF8047B58
:10119000704700BF80B582B000AF0346FB7100BF4F
:1011A00007484021FFF702FA0346012BF8D1FB79EB
:1011B0009BB203481946FFF7E7F90837BD4680BDE3
:1011C0000048004080B483B000AF78600B46FB70ED
:1011D0007B68FA781A70012318460C37BD465DF813
:1011E000047B704780B485B000AF7860396000231D
:1011F000FB600AE07B685A1C7A603A68511C3960CF
:1012000012781A70FB680133FB603B681B78002B77
:10121000F0D1FB6818461437BD465DF8047B704773
:1012200080B586B000AFF8607A603B600B46FB7219
:1012300000237B617B68013B7B603B68092B10D9F5
:101240003B681E4AA2FB0323DB08FA7AF8681146C2
:101250007A68FFF7E5FF78617B69FA681344FB6001
:1012600011E00DE0FB7AF8681946FFF7ABFFFB6869
:101270000133FB607B6901337B617B68013B7B60F1
:101280007B68002BEEDC39680C4BA3FB0123DA08EA
:1012900013469B0013445B00CA1AD3B23033DBB24F
:1012A000F8681946FFF78EFF02467B6913447B619D
:1012B0007B6918461837BD4680BD00BFCDCCCCCC6D
:1012C00090B587B000AFF8607A603B600B46FB7268
:1012D00000237B613B68002B03DA3B685B423B6188
:1012E00001E03B683B617B68013B7B603B69092B0C
:1012F00025D93B68002B0FDA3B69314AA2FB032357
:10130000DB085B421C46FB7AF86819467A6823467C
:10131000FFF7D6FF78610DE03B69294AA2FB032362
:10132000DB081C46FB7AF86819467A682346FFF703
:10133000C7FF78617B69FA681344FB6025E03B686E
:10134000002B02DA7B68013B7B600DE0FB7AF868DA
:101350001946FFF737FFFB680133FB607B690133F8
:101360007B617B68013B7B607B68002BEEDC3B682C
:10137000002B0ADAF8682D21FFF724FF02467B696B
:1013800013447B61FB680133FB6039690C4BA3FBA1
:101390000123DA0813469B0013445B00CA1AD3B238
:1013A0003033DBB2F8681946FFF70CFF02467B6961
:1013B00013447B617B6918461C37BD4690BD00BF56
:1013C000CDCCCCCC90B589B002AFF8607A601A462B
:1013D0000B46FB721346BB7200237B617B68013BAB
:1013E0007B60BB6A1B09002B13D0BB6A1B09FA7A0E
:1013F000BC7A0093F86811467A682346FFF7E2FF4B
:1014000002467B6913447B617B69FA681344FB6085
:1014100011E00DE0FB7AF8681946FFF7D3FEFB6890
:101420000133FB607B6901337B617B68013B7B603F
:101430007B68002BEEDCBB6A03F00F03092B0BD893
:10144000BB6ADBB203F00F03DBB23033DBB2F86808
:101450001946FFF7B7FE19E0BB7A002B0BD0BB6A29
:10146000DBB203F00F03DBB23733DBB2F8681946A7
:10147000FFF7A8FE0AE0BB6ADBB203F00F03DBB2A2
:101480005733DBB2F8681946FFF79CFE7B690133DE
:101490007B617B6918461C37BD4690BD90B58BB00B
:1014A00002AFF860B9607A603B600023BB61002343
:1014B0007B61FB68002B02D0FB6800221A70FCE005
:1014C0007B681B78252B0BD0FB685A1CFA607A6866
:1014D000511C796012781A707B6901337B61ECE0F2
:1014E0007B6801331B78252B0BD1FB685A1CFA60F3
:1014F00025221A707B6802337B607B6901337B6134
:10150000DBE02023FB770023BB777B6801337B6024
:101510007B681B78302B04D13023FB777B68013349
:101520007B600EE0BB7F1A46920013445B00DAB288
:101530007B681B781344DBB2303BBB777B6801339D
:101540007B607B681B782F2B03D97B681B78392B3A
:10155000E8D9BA7F7B6913441A46BB689A4205D919
:10156000BB68DAB27B69DBB2D31ABB777B681B78C6
:10157000583B202B00F2938001A252F823F000BFC9
:10158000571600089F1600089F1600089F160008AF
:101590009F1600089F1600089F1600089F16000857
:1015A0009F1600089F1600089F160008891600085D
:1015B000051600089F1600089F1600089F160008D1
:1015C0009F160008051600089F1600089F160008C1
:1015D0009F1600089F1600089F1600089F16000817
:1015E0009F1600089F1600089F1600087516000831
:1015F0009F1600081F1600089F1600089F16000877
:1016000039160008BC7F3B681A1D3A601B68FA7FD8
:10161000F86811462246FFF753FEB86142E0BC7FEE
:101620003B681A1D3A601B68FA7FF868114622462B
:10163000FFF7F6FDB86135E0BC7F3B681A1D3A60E4
:101640001B68FA7F0093F868114622460023FFF7D3
:10165000B9FEB86126E0BC7F3B681A1D3A601B6882
:10166000FA7F0093F868114622460123FFF7AAFE8D
:10167000B86117E03B681A1D3A601B68F8681946A4
:10168000FFF7B0FDB8610DE03B681A1D3A601B68BA
:10169000DBB2F8681946FFF795FDB86102E04FF03C
:1016A000FF3325E07B6801337B60BB69FA68134434
:1016B000FB607A69BB6913447B617B681B78002BF4
:1016C00004D07A69BB689A42FFF4FAAE7A69BB68C3
:1016D0009A4203D2FB6800221A7008E0FB68013BC3
:1016E000FB60FB6800221A707B69013B7B617B69B0
:1016F00018462437BD4690BD80B584B000AFF86071
:10170000B9607A60F8686421BA687B68FFF7C6FE42
:10171000034618461037BD4680BD00BFB0B5A6B021
:1017200000AFF860B9607A60144B07F110041D46F1
:101730000FCD0FC40FCD0FC42B68236007F1340306
:101740001846B9687A68FFF7D7FF0346632B09DDAF
:101750000B4B1B68DB6807F110021046194600F0BE
:1017600059F8FEE707F134031846F96800F052F81B
:10177000034618469837BD46B0BD00BFD41F0008C9
:101780003804002080B582B000AF78603960064B25
:101790001B689B68184679683A68FFF7BFFF0346E5
:1017A00018460837BD4680BD380400200FB480B508
:1017B00082B000AF07F114033B6038693968FFF766
:1017C000E1FF78607B6818460837BD46BDE8804079
:1017D00004B0704780B582B000AF786039600C4BC0
:1017E0001B689A683B689A4205D0094B1B68DA6807
:1017F0003B689A4206D17B68DBB21846FFF7CAFC09
:101800007B6801E04FF0FF3318460837BD4680BDC6
:101810003804002080B584B000AF786039600023C0
:10182000FB6012E07B681B7818463968FFF7D2FF2F
:101830000346B3F1FF3F02D14FF0FF330AE0FB68EC
:101840000133FB607B6801337B607B681B78002B76
:10185000E8D1FB6818461037BD4680BD80B582B020
:1018600000AFFFF771FA01200121FFF77FF9002394
:101870003B7102233B600023FB7103237B713B46DA
:101880000348194600F04AF80837BD4680BD00BF3E
:101890000000024080B584B000AF78600023BB81B7
:1018A00007F10C0302201946FFF79EFA0A480221AD
:1018B00000F0C2F80346FB73FB7B002B04D1BB890D
:1018C0005B429BB29BB201E0BB899BB27A681380FA
:1018D0001037BD4680BD00BF0000024080B485B017
:1018E00000AF0346B960FB81B7F90E3007EE903ABE
:1018F000F8EEE77A9FED087A67EE877AFDEEE77AF1
:10190000C7ED017ABB889AB2BB681A801437BD460E
:101910005DF8047B704700BF710BF73F80B487B060
:1019200000AF7860396000237B6100233B610023B6
:10193000FB6000237B6176E07B69012202FA03F3FE
:101940003B613B681A683B691340FB60FA683B697E
:101950009A4265D17B681A687B695B00194603234C
:101960008B40DB431A407B681A607B681A683B68CF
:101970001B7919467B695B0001FA03F31A437B6804
:101980001A603B681B79012B03D03B681B79022B43
:101990002ED17B689A687B695B00194603238B40D4
:1019A000DB431A407B689A607B689A683B685B7986
:1019B00019467B695B0001FA03F31A437B689A605E
:1019C0007B685A687B699BB2194601238B40DB43D5
:1019D0001A407B685A607B685B683A689279114666
:1019E0007A6992B201FA02F292B21A437B685A60A3
:1019F0007B68DA687B699BB25B00032101FA03F321
:101A0000DB431A407B68DA607B68DA683B68DB7925
:101A100019467B695B0001FA03F31A437B68DA60BD
:101A20007B6901337B617B690F2B85D91C37BD46F0
:101A30005DF8047B704700BF80B485B000AF78606C
:101A40000B467B800023FB737B681A697B881340FD
:101A5000002B02D00123FB7301E00023FB73FB7B0F
:101A600018461437BD465DF8047B704780B485B0D6
:101A700000AF78600B467B8013467B700023FB60D1
:101A80000023BB607B787A8802F0070292009340C3
:101A9000FB607B88DB089BB218467B88DB089BB227
:101AA0001A467B68083253F822207B8803F007032C
:101AB0009B0019460F238B40DB4302EA03017B683E
:101AC00000F1080243F822107B88DB089BB21A461B
:101AD0007B68083253F82220FB681343BB607B8885
:101AE000DB089BB21A467B680832B96843F82210BB
:101AF0001437BD465DF8047B704700BF80B584B0E5
:101B000000AF03460A46FB801346BB80B7F90420AA
:101B1000B7F906309342A8BF1346FB8100237B81AF
:101B200000233B812748FFF741FE2748FFF73EFE91
:101B3000B7F906301846FEF78DFD6420FEF738FC35
:101B4000B7F90620B7F904309342B8BF1346BB81FA
:101B500022E0B7F90E301846FEF77CFD0120FEF7B3
:101B600027FC07F10A031846FFF794FE7B891AB297
:101B700007F1080310461946FFF7B0FEB7F90E103B
:101B80007B891AB23B891BB21048FFF70FFEFB8915
:101B90009BB201339BB2FB810D4B1B7803F0010319
:101BA000DBB2002B05D1B7F90E20B7F90C309A4201
:101BB000CFDD074B1A7822F001021A701037BD46AC
:101BC00080BD00BF04200008382000085420000811
:101BD0005404002080B485B000AF78600023FB601F
:101BE000344BFB607B689B79002B4FD03149314BE4
:101BF0001A687B681B68DB4313400B602D492D4B33
:101C00005A687B681B68DB4313404B607B681B7919
:101C10001A46FB681344FB60FB68FA6811687A682F
:101C200012680A431A602349224B9A687B681B6832
:101C3000DB4313408B601F491E4BDA687B681B68CF
:101C4000DB431340CB607B685B79102B0ED11949C5
:101C5000184B9A687B681B6813438B601549154BBA
:101C6000DA687B681B681343CB601DE0114BFB6097
:101C70007B685B791A46FB681344FB60FB68FA6873
:101C800011687A6812680A431A600DE07B681B7954
:101C90001A46FB681344FB60FB68FA6811687A68AF
:101CA0001268D2430A401A601437BD465DF8047BBF
:101CB000704700BF003C014080B485B000AF786041
:101CC0000023FB730023BB600C4B1A687B68134036
:101CD000BB600A4B5A697B681340002B05D0BB6878
:101CE000002B02D00123FB7301E00023FB73FB7B7D
:101CF00018461437BD465DF8047B7047003C014030
:101D000080B483B000AF7860034A7B6853610C37BE
:101D1000BD465DF8047B7047003C014080B485B04F
:101D200000AF78600023FB730023BB730F237B732A
:101D30007B68DB78002B38D0264BDB68DB4303F471
:101D4000E0631B0AFB73FB7BC3F10403BB737A7B69
:101D5000FB7B42FA03F37B737B685B781A46BB7BA1
:101D600002FA03F3FB737B689A787B7B1340DAB249
:101D7000FB7B1343FB73FB7B1B01FB73164A7B68E6
:101D80001B781344FA7B83F80023134A7B681B7883
:101D90005B09DBB218467B681B7803F01F03012147
:101DA00001FA03F342F820300FE00B497B681B78FF
:101DB0005B09DBB218467B681B7803F01F03012226
:101DC0009A4000F1200341F823201437BD465DF806
:101DD000047B704700ED00E000E100E080B586B0D4
:101DE00000AF08200121FEF7C1FE4FF48020012141
:101DF000FEF7DAFE4FF440733B6102233B7500238C
:101E0000BB750123FB7503237B7507F11003134892
:101E10001946FFF783FD114808210722FFF726FE28
:101E20000E4809210722FFF721FE4FF4E1333B6002
:101E30000023BB8000233B810023FB800023BB8168
:101E40000C237B813B4606481946FEF7C1FA04483D
:101E50000121FEF779FB1837BD4680BD000C02401A
:101E6000004800400C000000A69B043F710BF73FA8
:101E70000D0A0000202020202020202020202020CB
:101E80002020202020202020202020202020202052
:101E900020202020202050726F6A65742053452036
:101EA000340D0A0D0A0000002020202020202020D0
:101EB0002020202020202020202020202020202022
:101EC0002020202020202020496E697469616C69DF
:101ED000736174696F6E730D0A00000055415254AE
:101EE00020496E697469616C697365206176656308
:101EF0002073756363657320210D0A0D0A000000CD
:101F0000496E697469616C69736174696F6E204CA4
:101F10004544730D0A000000496E697469616C697B
:101F2000736174696F6E20647520626F75746F6E73
:101F30000D0A0000496E697469616C6973617469A6
:101F40006F6E2041444373206574205369676E654A
:101F50002074616368796D657472650D0A00000014
:101F6000496E697469616C69736174696F6E20454B
:101F70006E636F646575720D0A000000496E6974C6
:101F800069616C69736174696F6E204441430D0A25
:101F900000000000202020202020202020202020C1
:101FA000202020202020202046696E206427696E92
:101FB000697469616C69736174696F6E20646573BB
:101FC00020706572697068657269717565730D0A54
:101FD0000D0A0000737464696F2E633A20696E63A2
:101FE0007265617365204D41585F535452494E47A5
:101FF0005F53495A450A0D000C000000A69B043FA0
:10200000710BF73F2020202020202020202020209E
:1020100020202020202020202020202020202020C0
:10202000202020205374617274696E672053776595
:1020300065700D0A0D0A0000436F6E7369676E6567
:102040002C4144435F74616368792C52504D0D0AF2
:0F2050000000000025692C25692C25690D0A0068
:10205F00000000000102030401020304060708093F
:10206F000000000000000000010000000000000060
:10207F000000000000000000000000000000000051
:10208F000000000000000000000000000000000041
:10209F000000000000000000000000000000000031
:1020AF000000000000000000000000000000000021
:10248F00000000000000000010000020007A030A86
:10249F000000000000000000010203040607080905
:0400000508000000EF
:00000001FF
