:020000040800F2
:10000000280800202D040008850400088504000845
:10001000850400088504000885040008000000002D
:10002000000000000000000000000000850400083F
:10003000850400080000000085040008BD070008D2
:10004000850400088504000885040008850400086C
:10005000850400088504000885040008850400085C
:10006000850400088504000885040008850400084C
:10007000850400088504000885040008850400083C
:10008000850400088504000885040008850400082C
:10009000850400088504000885040008850400081C
:1000A000850400088504000885040008850400080C
:1000B00085040008850400088504000885040008FC
:1000C00085040008850400088504000885040008EC
:1000D00085040008850400088504000885040008DC
:1000E00085040008850400088504000885040008CC
:1000F00085040008850400088504000885040008BC
:1001000085040008850400088504000885040008AB
:10011000850400088504000885040008850400089B
:10012000850400088504000885040008850400088B
:10013000850400088504000885040008850400087B
:10014000850400088504000885040008850400086B
:10015000850400088504000885040008850400085B
:10016000850400088504000885040008850400084B
:10017000850400088504000885040008850400083B
:10018000850400088504000880B483B000AF0346EE
:100190003960FB7197F90730002B0BDA0D49FB79B9
:1001A00003F00F03043B3A68D2B21201D2B20B44FF
:1001B0001A7609E0084997F907303A68D2B2120175
:1001C000D2B20B4483F800230C37BD465DF8047BA4
:1001D000704700BF00ED00E000E100E080B582B0B4
:1001E00000AF78607B68B3F1807F01D3012311E019
:1001F0000A4A7B6823F07F43013B53604FF0FF3096
:100200000F21FFF7C1FF054B00229A60034B072225
:100210001A60002318460837BD4680BD10E000E094
:1002200080B500AF00BF064B1B68064AA2FB032344
:100230009B0C1846FFF7D2FF0346002BF3D180BD7D
:100240000000002083DE1B4380B400AF064B1B6818
:10025000002B04D0044B1B68013B034A1360BD46CE
:100260005DF8047B704700BF1400002080B400AF2D
:10027000064B4FF47A721A6000BF044B1B68002BC8
:10028000FBD1BD465DF8047B704700BF1400002021
:1002900080B582B000AF786001E0FFF7E7FF7B68D0
:1002A0005A1E7A60002BF8D10837BD4680BD00BFCA
:1002B00080B500AF4FF00050012100F0DFFA4FF0A1
:1002C0000050002100F0DAFA80BD00BF80B485B094
:1002D00000AF786039600023FB600023BB60134BE4
:1002E0001B68FB607B6840F6FE7202FA03F3DB4397
:1002F000FA681340FB603B681A683B685B681A4306
:100300003B689B681A433B68DB681343BB607B68B0
:10031000BA6802FA03F3FA681343FB60034AFB6806
:1003200013601437BD465DF8047B704700740040CD
:1003300080B483B000AF78600B46FB70FB78002B75
:1003400009D00C490B4B1A687B68012000FA03F3B3
:1003500013430B6009E00749064B1A687B680120CC
:1003600000FA03F3DB4313400B600C37BD465DF826
:10037000047B70470074004080B483B000AF7860A5
:100380000B46FB70FB78002B0AD00D490C4B5A68CA
:100390007B681B0918460123834013434B600AE026
:1003A0000749074B5A687B681B091846012383409D
:1003B000DB4313404B600C37BD465DF8047B704750
:1003C0000074004080B485B000AF78600B467B803D
:1003D0000023FB60074BFB60FA687B68134408331B
:1003E000FB60FB681A467B8813601437BD465DF8D6
:1003F000047B70470074004080B485B000AF786023
:100400000B467B800023FB60074BFB60FA687B6830
:1004100013441433FB60FB681A467B88136014375F
:10042000BD465DF8047B70470074004080B582B023
:1004300000AF0F4B7B600F4B3B6007E03B681A1D22
:100440003A607A68111D796012681A603B680A4A3E
:100450009342F3D309480A494FF000028842B8BFDB
:1004600040F8042BFADB00F011F80837BD4680BDD8
:100470008C1200080000002014000020140000204E
:100480002400002080B400AFFEE700BF80B500AFBD
:10049000FFF7C6FE00F0D2F800F0ECF800F056F9D5
:1004A0001C484FF4805100F061FC1B4800F03EF8FE
:1004B0001A4800F061F8194B1B881846184900F0DB
:1004C00081F80C23013B012202FA03F39AB2124B8A
:1004D0001B885B089BB213449AB2124B1A800C2300
:1004E000013B012202FA03F39AB20B4B1B885B0813
:1004F0009BB2D31A9AB20C4B1A800A4B1A880A4B39
:100500001B881046194600F07BF80120FFF7C0FE5B
:10051000C6E700BF000C0240180000201A000020AF
:100520001C0000201E0000202000002080B582B0AA
:1005300000AF78600F4808210122012300F076FA0D
:100540000C4800F03DFB00BF0A48022100F056FBBA
:100550000346002BF8D0074800F042FB03461A463A
:100560007B681A800348022100F062FB0837BD4611
:1005700080BD00BF0020014080B582B000AF786030
:100580000F4802210122012300F050FA0C4800F02C
:1005900017FB00BF0A48022100F030FB0346002B86
:1005A000F8D0074800F01CFB03461A467B681A8007
:1005B0000348022100F03CFB0837BD4680BD00BF68
:1005C0000020014080B582B000AF03463960FB8057
:1005D000FB88184600F096FC0246084B1046194668
:1005E00000F098FD0346184600F030FE03469AB22C
:1005F0003B681A800837BD4680BD00BFA69B043FFC
:1006000080B582B000AF03460A46FB801346BB802C
:10061000FB8800201946FFF7D5FEBB88002019464D
:10062000FFF7EAFE00200121FFF7A6FE10200121BE
:10063000FFF7A2FE0837BD4680BD00BF80B582B07F
:1006400000AF0820012100F0BFF84FF440533B6099
:1006500001233B710023BB7103237B710023FB71DA
:100660003B460348194600F0F3FA0837BD4680BD03
:10067000000C024080B588B000AF0220012100F0DC
:10068000A3F80120012100F09FF84FF480700121B0
:1006900000F0D6F80123BB6103233B770023FB77EF
:1006A00007F118032648194600F0D2FA0423BB616B
:1006B00003233B770023FB7707F1180321481946F2
:1006C00000F0C6FA00F016F93B46184600F074F93F
:1006D00000233B6000237B7100233B610023FB6010
:1006E0000023BB6000233B713B461748194600F0CE
:1006F0000FF9154808210122012300F097F912484B
:1007000002210122012300F091F90F48022100F09B
:100710008FFA0D48012100F06DF90B4800F050FAF6
:1007200000BF0948022100F069FA0346002BF8D007
:100730000548022100F07CFA2037BD4680BD00BF8D
:1007400000040240000002400020014080B586B055
:1007500000AF0120012100F037F84FF000500121D7
:1007600000F050F830233B6103233B750023FB75F9
:1007700007F110031048194600F06AFAFFF798FDD8
:100780003C233B600023FB6000237B603B46002052
:100790001946FFF79BFD3B4610201946FFF796FDD3
:1007A00000200121FFF7C4FD10200121FFF7C0FD4B
:1007B0001837BD4680BD00BF0000024080B500AFC5
:1007C000FFF742FD80BD00BF80B483B000AF78600A
:1007D0000B46FB70FB78002B06D00949084B1A6BBF
:1007E0007B6813430B6306E00549054B1A6B7B6876
:1007F000DB4313400B630C37BD465DF8047B704749
:100800000038024080B483B000AF78600B46FB70C4
:10081000FB78002B06D00949084B1A6C7B68134300
:100820000B6406E00549054B1A6C7B68DB431340FB
:100830000B640C37BD465DF8047B704700380240FE
:1008400080B483B000AF78600B46FB70FB78002B60
:1008500006D00949084B5A6C7B6813434B6406E089
:100860000549054B5A6C7B68DB4313404B640C37DE
:10087000BD465DF8047B70470038024080B483B009
:1008800000AF78600B46FB70FB78002B06D009495F
:10089000084B1A6A7B6813430B6206E00549054B57
:1008A0001A6A7B68DB4313400B620C37BD465DF868
:1008B000047B70470038024080B483B000AF78609A
:1008C0000B46FB70FB78002B06D00949084B5A6A8F
:1008D0007B6813434B6206E00549054B5A6A7B6807
:1008E000DB4313404B620C37BD465DF8047B704719
:1008F0000038024080B500AF4FF480700121FFF74F
:10090000DBFF4FF480700021FFF7D6FF80BD00BFF2
:1009100080B485B000AF786039600023FB600023AD
:10092000FB727B685B68FB60FB6823F0407323F419
:100930008073FB603B681B791A023B681B6813439A
:10094000FA681343FB607B68FA685A607B689B68AF
:10095000FB60FA68174B1340FB603B681A693B6801
:10096000DB681A433B689B681A433B685B795B0012
:100970001343FA681343FB607B68FA689A607B68EC
:10098000DB6AFB60FB6823F47003FB603B681B7D44
:10099000013BDAB2FB7A1343FB72FB7A1B05FA6860
:1009A0001343FB607B68FA68DA621437BD465DF872
:1009B000047B7047FDF7FFC080B483B000AF786060
:1009C0007B6800221A607B6800221A717B68002213
:1009D0005A717B6800229A607B680022DA607B682B
:1009E00000221A617B6801221A750C37BD465DF83A
:1009F000047B704780B483B000AF78600B46FB7017
:100A0000FB78002B06D07B689B6843F001027B6873
:100A10009A6005E07B689B6823F001027B689A601E
:100A20000C37BD465DF8047B704700BF80B485B0CD
:100A300000AF7860084611461A460346FB700B4625
:100A4000BB7013467B700023FB600023BB60FB7808
:100A5000092B23D97B68DB68FB60FB78A3F10A02D2
:100A600013465B001344072202FA03F3BB60BB6822
:100A7000DB43FA681340FB607978FB78A3F10A0244
:100A800013465B00134401FA03F3BB60FA68BB68CA
:100A90001343FB607B68FA68DA601EE07B681B69C1
:100AA000FB60FA7813465B001344072202FA03F353
:100AB000BB60BB68DB43FA681340FB607978FA7867
:100AC00013465B00134401FA03F3BB60FA68BB688A
:100AD0001343FB607B68FA681A61BB78062B21D848
:100AE0007B685B6BFB60BB785A1E13469B0013440C
:100AF0001F2202FA03F3BB60BB68DB43FA681340B2
:100B0000FB60F978BB785A1E13469B00134401FA28
:100B100003F3BB60FA68BB681343FB607B68FA6849
:100B20005A6347E0BB780C2B21D87B681B6BFB60BA
:100B3000BB78DA1F13469B0013441F2202FA03F30B
:100B4000BB60BB68DB43FA681340FB60F978BB7895
:100B5000DA1F13469B00134401FA03F3BB60FA68E3
:100B6000BB681343FB607B68FA681A6322E07B680A
:100B7000DB6AFB60BB78A3F10D0213469B001344B4
:100B80001F2202FA03F3BB60BB68DB43FA68134021
:100B9000FB60F978BB78A3F10D0213469B00134468
:100BA00001FA03F3BB60FA68BB681343FB607B6820
:100BB000FA68DA621437BD465DF8047B704700BFFF
:100BC00080B483B000AF78607B689B6843F080425C
:100BD0007B689A600C37BD465DF8047B704700BFA8
:100BE00080B483B000AF78607B68DB6C9BB2184642
:100BF0000C37BD465DF8047B704700BF80B485B0FC
:100C000000AF78600B46FB700023FB737B681A68AB
:100C1000FB781340002B02D00123FB7301E000237B
:100C2000FB73FB7B18461437BD465DF8047B7047A9
:100C300080B483B000AF78600B46FB70FB78DA437A
:100C40007B681A600C37BD465DF8047B704700BFB7
:100C500080B487B000AF7860396000237B610023E7
:100C60003B610023FB6000237B6176E07B6901220E
:100C700002FA03F33B613B681A683B691340FB606F
:100C8000FA683B699A4265D17B681A687B695B00A8
:100C9000194603238B40DB431A407B681A607B684C
:100CA0001A683B681B7919467B695B0001FA03F3FC
:100CB0001A437B681A603B681B79012B03D03B68A1
:100CC0001B79022B2ED17B689A687B695B001946E1
:100CD00003238B40DB431A407B689A607B689A68E9
:100CE0003B685B7919467B695B0001FA03F31A43A1
:100CF0007B689A607B685A687B699BB219460123BE
:100D00008B40DB431A407B685A607B685B683A68BB
:100D1000927911467A6992B201FA02F292B21A43BA
:100D20007B685A607B68DA687B699BB25B00032151
:100D300001FA03F3DB431A407B68DA607B68DA6808
:100D40003B68DB7919467B695B0001FA03F31A43C0
:100D50007B68DA607B6901337B617B690F2B85D906
:100D60001C37BD465DF8047B704700BF80B483B07C
:100D700000AF78600B467B807B685A697B885A405D
:100D80007B685A610C37BD465DF8047B704700BF35
:100D900080F0004002E000BF81F0004142001FBF30
:100DA0005FEA410392EA030F7FEA226C7FEA236C39
:100DB0006AD04FEA1262D2EB1363C1BFD21841402E
:100DC00048404140B8BF5B42192B88BF704710F0C4
:100DD000004F40F4000020F07F4018BF404211F067
:100DE000004F41F4000121F07F4118BF494292EACF
:100DF000030F3FD0A2F1010241FA03FC10EB0C00FB
:100E0000C3F1200301FA03F100F0004302D5494287
:100E100060EB4000B0F5000F13D3B0F1807F06D334
:100E200040084FEA310102F10102FE2A51D2B1F12C
:100E3000004F40EBC25008BF20F0010040EA030021
:100E40007047490040EB000010F4000FA2F10102CE
:100E5000EDD1B0FA80FCACF1080CB2EB0C0200FA58
:100E60000CF0AABF00EBC25052421843BCBFD040A6
:100E70001843704792F0000F81F4000106BF80F420
:100E800000000132013BB5E74FEA41037FEA226CE3
:100E900018BF7FEA236C21D092EA030F04D092F0AE
:100EA000000F08BF0846704790EA010F1CBF0020E2
:100EB000704712F07F4F04D1400028BF40F000403F
:100EC000704712F100723CBF00F50000704700F05F
:100ED000004343F0FE4040F4000070477FEA226286
:100EE00016BF08467FEA23630146420206BF5FEA57
:100EF000412390EA010F40F4800070474FF0000357
:100F000004E000BF10F0004348BF40425FEA000C1D
:100F100008BF704743F0964301464FF000001CE0C5
:100F200050EA010208BF70474FF000030AE000BF1B
:100F300050EA010208BF704711F0004302D5404259
:100F400061EB41015FEA010C02BF844601460020CB
:100F500043F0B64308BFA3F18053A3F50003BCFAE6
:100F60008CF2083AA3EBC25310DB01FA02FC634493
:100F700000FA02FCC2F12002BCF1004F20FA02F29A
:100F800043EB020008BF20F00100704702F120028D
:100F900001FA02FCC2F1200250EA4C0021FA02F2EE
:100FA00043EB020008BF20EADC7070474FF0FF0CF3
:100FB0001CEAD0521EBF1CEAD15392EA0C0F93EAEE
:100FC0000C0F6FD01A4480EA010C400218BF5FEA90
:100FD00041211ED04FF0006343EA501043EA511103
:100FE000A0FB01310CF00040B1F5000F3EBF4900FD
:100FF00041EAD3715B0040EA010062F17F02FD2A01
:101000001DD8B3F1004F40EBC25008BF20F00100E3
:10101000704790F0000F0CF0004C08BF49024CEAFA
:10102000502040EA51207F3AC2BFD2F1FF0340EA8C
:10103000C250704740F400004FF00003013A5DDCFD
:1010400012F1190FDCBF00F000407047C2F100023E
:10105000410021FA02F1C2F1200200FA02FC5FEA2B
:10106000310040F1000053EA4C0308BF20EADC7075
:10107000704792F0000F00F0004C02BF400010F4E7
:10108000000F013AF9D040EA0C0093F0000F01F094
:10109000004C02BF490011F4000F013BF9D041EAB6
:1010A0000C018FE70CEAD15392EA0C0F18BF93EAB8
:1010B0000C0F0AD030F0004C18BF31F0004CD8D1E2
:1010C00080EA010000F00040704790F0000F17BF69
:1010D00090F0004F084691F0000F91F0004F14D0AF
:1010E00092EA0C0F01D142020FD193EA0C0F03D107
:1010F0004B0218BF084608D180EA010000F000400A
:1011000040F0FE4040F40000704740F0FE4040F4E4
:10111000400070474FF0FF0C1CEAD0521EBF1CEA83
:10112000D15392EA0C0F93EA0C0F69D0A2EB0302A1
:1011300080EA010C49024FEA402037D04FF080533B
:1011400043EA111143EA10130CF000408B4238BF00
:101150005B0042F17D024FF4000C8B4224BF5B1A0E
:1011600040EA0C00B3EB510F24BFA3EB510340EA5C
:101170005C00B3EB910F24BFA3EB910340EA9C000A
:10118000B3EBD10F24BFA3EBD10340EADC001B017A
:1011900018BF5FEA1C1CE0D1FD2A3FF650AF8B421E
:1011A00040EBC25008BF20F0010070470CF0004C2B
:1011B0004CEA50207F32C2BFD2F1FF0340EAC25056
:1011C000704740F400004FF00003013A37E792F017
:1011D000000F00F0004C02BF400010F4000F013A75
:1011E000F9D040EA0C0093F0000F01F0004C02BF70
:1011F000490011F4000F013BF9D041EA0C0195E7D9
:101200000CEAD15392EA0C0F08D142027FF47DAF71
:1012100093EA0C0F7FF470AF084676E793EA0C0F61
:1012200004D14B023FF44CAF08466EE730F0004C5F
:1012300018BF31F0004CCAD130F000427FF45CAFEF
:1012400031F000437FF43CAF5FE700BF42000ED2B5
:10125000B2F1FE4F0BD34FF09E03B3EB126209D4F1
:101260004FEA002343F0004323FA02F070474FF0A7
:101270000000704712F1610F01D1420202D14FF01C
:0C128000FF3070474FF00000704700BFC7
:10128C00007A030A000000000000000001020304C1
:04129C000607080930
:0400000508000000EF
:00000001FF
