:020000040800F2
:10000000780C0020C90800083109000831090008EF
:10001000310900083109000831090008000000001A
:10002000000000000000000000000000310900088E
:100030003109000800000000310900088D0F000898
:1000400031090008310900083109000831090008A8
:100050003109000831090008990F0008310900082A
:100060003109000831090008310900083109000888
:10007000ED0F0008310900083109000831090008B6
:100080003109000831090008310900083109000868
:10009000310900083109000831090008C10F0008C2
:1000A0003109000831090008310900083109000848
:1000B000211000085110000831090008310900081A
:1000C0003109000831090008310900083109000828
:1000D0003109000831090008310900083109000818
:1000E0003109000831090008310900083109000808
:1000F00031090008310900083109000831090008F8
:1001000031090008310900083109000831090008E7
:1001100031090008310900083109000831090008D7
:1001200031090008310900083109000831090008C7
:1001300031090008310900083109000831090008B7
:1001400031090008310900083109000831090008A7
:100150003109000831090008310900083109000897
:100160003109000831090008310900083109000887
:100170003109000831090008310900083109000877
:10018000310900083109000880B586B000AF0220AF
:10019000012101F01FF8C0233B6100233B750023C0
:1001A000FB7503237B7507F110031D48194601F009
:1001B00055FE4FF48040012101F048F8012006214E
:1001C00000F030F84023BB600123BB7300233B7376
:1001D00010237B7307F10803184602F07BF9012016
:1001E000072100F01FF88023BB600123BB730023AD
:1001F0003B7310237B7307F10803184602F06AF97A
:1002000017233B710123FB7100237B710123BB7119
:100210003B1D184602F002FA1837BD4680BD00BFEC
:100220000004024090B484B000AF03460A46FB715C
:100230001346BB710023FB60BB7903F003039B00F3
:100240000F2202FA03F3FB601649BB799B08DBB26D
:100250001846144ABB799B08DBB2023352F82320BC
:10026000FB68DB431A40831C41F823200D48BB790F
:100270009B08DBB21C460B4ABB799B08DBB20233FE
:1002800052F82320F979BB7903F003039B0001FAAC
:1002900003F31A43A31C40F823201037BD4690BC3B
:1002A000704700BF0038014080B483B000AF034600
:1002B0003960FB7197F90730002B0BDA0D49FB7998
:1002C00003F00F03043B3A68D2B21201D2B20B44DE
:1002D0001A7609E0084997F907303A68D2B2120154
:1002E000D2B20B4483F800230C37BD465DF8047B83
:1002F000704700BF00ED00E000E100E080B582B093
:1003000000AF78607B68B3F1807F01D3012311E0F7
:100310000A4A7B6823F07F43013B53604FF0FF3074
:100320000F21FFF7C1FF054B00229A60034B072204
:100330001A60002318460837BD4680BD10E000E073
:1003400080B500AF00BF064B1B68064AA2FB032323
:100350009B0C1846FFF7D2FF0346002BF3D180BD5C
:100360003C04002083DE1B4380B400AF064B1B68B7
:10037000002B04D0044B1B68013B034A1360BD46AD
:100380005DF8047B704700BF5004002080B400AFCC
:10039000064B4FF47A721A6000BF044B1B68002BA7
:1003A000FBD1BD465DF8047B704700BF50040020C0
:1003B00080B582B000AF786001E0FFF7E7FF7B68AF
:1003C0005A1E7A60002BF8D10837BD4680BD00BFA9
:1003D00080B58AB000AF7860396000237B6200236B
:1003E0003B620023FB610023BB617B681B8A9BB2DD
:1003F0007B627B6A23F440537B623B68DB881A464E
:100400007B6A13437B627B6A9AB27B681A827B6841
:100410009B899BB27B627B6A23F4B05323F00C036D
:100420007B623B689A883B681B8913439AB23B689E
:100430005B8913439BB21A467B6A13437B627B6AD8
:100440009AB27B689A817B689B8A9BB27B627B6A4B
:1004500023F440737B623B689B891A467B6A134393
:100460007B627B6A9AB27B689A8207F1080318461E
:1004700000F006FE7B68314A934203D07B68304A25
:10048000934202D17B693B6201E03B693B627B683E
:100490009B899BB29BB21BB2002B0CDA3A6A1346C3
:1004A0009B0013449A001A443B681B685B00B2FB34
:1004B000F3F3FB610BE03A6A13469B0013449A0086
:1004C0001A443B681B689B00B2FBF3F3FB61FB69BA
:1004D0001C4AA2FB03235B091B017B627B6A1B098D
:1004E000642202FB03F3FA69D31ABB617B689B8920
:1004F0009BB29BB21BB2002B0CDABB69DB00323320
:10050000104AA2FB03235B0903F007037A6A134333
:100510007B620BE0BB691B0132330A4AA2FB032357
:100520005B0903F00F037A6A13437B627B6A9AB21A
:100530007B681A812837BD4680BD00BF001001408E
:10054000001401401F85EB5180B483B000AF786088
:100550000B46FB70FB78002B08D07B689B899BB215
:1005600043F400539AB27B689A8107E07B689B89C9
:100570009BB223F400539AB27B689A810C37BD4634
:100580005DF8047B704700BF80B483B000AF786033
:100590000B467B807B88C3F308039AB27B689A8002
:1005A0000C37BD465DF8047B704700BF80B483B054
:1005B00000AF78600B467B8013467B707B78002B06
:1005C00008D07B689B8A9AB27B8813439AB27B6877
:1005D0009A8209E07B689B8A9AB27B88DB439BB254
:1005E00013409AB27B689A820C37BD465DF8047B53
:1005F000704700BF80B485B000AF78600B467B8049
:100600000023FB737B681B889AB27B8813409BB2E4
:10061000002B02D00123FB7301E00023FB73FB7B63
:1006200018461437BD465DF8047B704780B586B028
:1006300000AF0120012100F0CDFD4FF0005001215D
:1006400000F0E6FD30233B6103233B750023FB757F
:1006500007F110031048194601F000FC00F076F88D
:100660003C233B600023FB6000237B603B46002073
:10067000194600F079F83B461020194600F074F84E
:100680000020012100F0A2F81020012100F09EF8C6
:100690001837BD4680BD00BF0000024080B584B061
:1006A00000AF0346FB80B7F906300C221146012249
:1006B0008A40013A93FBF2F102FB01F29B1AFB81A3
:1006C0000C23013B012202FA03F39AB2B7F90E3070
:1006D000D90F0B445B109BB29BB21344BB810C231C
:1006E000013B012202FA03F39AB2B7F90E30D90F97
:1006F0000B445B109BB29BB2D31A7B81BA897B8976
:100700001046194600F004F81037BD4680BD00BF02
:1007100080B582B000AF03460A46FB801346BB801B
:10072000FB880020194600F09BF8BB880020194682
:1007300000F0B0F80020012100F06CF81020012139
:1007400000F068F80837BD4680BD00BF80B500AF37
:100750004FF00050012100F097FD4FF000500021B4
:1007600000F092FD80BD00BF80B485B000AF78601E
:1007700039600023FB600023BB60134B1B68FB60E8
:100780007B6840F6FE7202FA03F3DB43FA6813401B
:10079000FB603B681A683B685B681A433B689B6870
:1007A0001A433B68DB681343BB607B68BA6802FA94
:1007B00003F3FA681343FB60034AFB6813601437C2
:1007C000BD465DF8047B70470074004080B483B080
:1007D00000AF78600B46FB70FB78002B09D00C490A
:1007E0000B4B1A687B68012000FA03F313430B607C
:1007F00009E00749064B1A687B68012000FA03F3F9
:10080000DB4313400B600C37BD465DF8047B70473B
:100810000074004080B483B000AF78600B46FB707A
:10082000FB78002B0AD00D490C4B5A687B681B09DA
:1008300018460123834013434B600AE00749074BE6
:100840005A687B681B09184601238340DB43134029
:100850004B600C37BD465DF8047B70470074004068
:1008600080B485B000AF78600B467B800023FB60CE
:10087000074BFB60FA687B6813440833FB60FB6836
:100880001A467B8813601437BD465DF8047B7047B9
:100890000074004080B485B000AF78600B467B8068
:1008A0000023FB60074BFB60FA687B68134414333A
:1008B000FB60FB681A467B8813601437BD465DF801
:1008C000047B70470074004080B582B000AF124BCB
:1008D0007B60124B3B6007E03B681A1D3A607A6808
:1008E000111D796012681A603B680D4A9342F3D378
:1008F0000C480D494FF000028842B8BF40F8042B65
:10090000FADBDFF82800016841F47001016000F0B3
:1009100013F80837BD4680BD142C000800000020E5
:1009200050040020500400207404002088ED00E0F2
:1009300080B400AFFEE700BF80B582B000AF00F02A
:1009400097F93B46184600F0A1F8394800F076F8D0
:1009500023E038484FF4805101F028FB344800F080
:100960007FF83B78022B07D0042B10D0012B0FD13E
:100970007A882F4B9A800BE07A88BB8812B21BB220
:100980001046194600F078FA01233B7000E000BFE2
:10099000294B1A7822F004021A70274B1B78DBB21D
:1009A0009B0803F00103DBB2002BD2D10DE02148FC
:1009B0004FF4804101F0FAFA3B46184600F078F80F
:1009C0001D4B1A7822F002021A701B4B1B78DBB207
:1009D0005B0803F00103DBB2002BE8D10CE0154803
:1009E0004FF4005101F0E2FA114800F0BDF8124B4B
:1009F0001A7822F008021A700F4B1B78DBB2DB0862
:100A000003F00103DBB2002BE9D109E009484FF400
:100A1000004101F0CBFA084B1A7822F001021A705B
:100A2000054B1B7803F00103DBB2002BEED18FE7FF
:100A300068040020000C02405404002080B483B0FD
:100A400000AF78607B6800225A807B6800221A80A1
:100A50007B6800229A800C37BD465DF8047B7047A6
:100A600080B483B000AF78607B6800225A80012395
:100A70001A46054B33F812309AB27B681A800C374D
:100A8000BD465DF8047B70477004002080B483B0DD
:100A900000AF78607B6801221A707B6800225A8060
:100AA0007B6800229A800C37BD465DF8047B704756
:100AB00080B483B000AF786000231A46294B9B5C5A
:100AC000DBB21B09DAB27B681A7001231A46254B88
:100AD0009B5CDBB21B0299B201230133214AD35C38
:100AE000DBB29BB20A4613439AB27B685A80032357
:100AF0001A461C4B9B5CDBB21B0299B203230133E9
:100B0000184AD35CDBB29BB20A4613439AB27B68A5
:100B10005A8000231A46134B9B5CDBB2042213401D
:100B2000DBB2002B07D07B685B889BB25B429BB239
:100B30009AB27B685A8000231A460A4B9B5CDBB250
:100B400001221340DBB2002B07D07B689B889BB24D
:100B50005B429BB29AB27B689A800C37BD465DF8C7
:100B6000047B70475804002080B582B000AF7860E5
:100B70007B681B881AB27B685B881BB203481146EE
:100B80001A4601F0D9F80837BD4680BD042A00088E
:100B900080B584B000AF4FF48040012100F056FBD7
:100BA0000120012100F034FB0220012100F030FB84
:100BB0001C233B730123FB7300237B730023BB7354
:100BC00007F10C03184601F029FD40F2E7337B6082
:100BD00053233B8000233B8100237B803B464FF027
:100BE0008040194601F07AFD4FF08040012101223A
:100BF00001F0FEFD4FF08040012101F0D9FD1037DA
:100C0000BD4680BD80B584B000AF4FF48040012167
:100C100000F01CFB0220012100F0FAFA1D233B73B7
:100C20000123FB7300237B730123BB7307F10C03C8
:100C3000184601F0F3FC0C4B7B6053233B800023F0
:100C40003B8100237B803B460848194601F046FD66
:100C500006480121012201F0CBFD0448012101F0E9
:100C6000A7FD1037BD4680BD9F86010000040040EF
:100C700080B500AFFFF764FB1B4801F017FE1B486F
:100C800001F05AF81A4801F057F81A4801F054F8E0
:100C9000194801F051F8194801F04EF800F030FB06
:100CA000174801F049F800F047FB164801F044F8F6
:100CB00000F032F801F098F8134801F03DF8FFF722
:100CC00063FA124801F038F8FFF7B0FC074801F06A
:100CD00033F80F4801F030F80E4801F02DF8FFF717
:100CE00057FFFFF78FFF80BD580400200C2A000833
:100CF000102A0008442A0008782A0008A42A0008BC
:100D0000BC2A0008D82A0008042B0008202B000861
:100D1000382B0008782B000880B59EB000AF01206A
:100D2000012100F057FA0220012100F053FA4FF49C
:100D30008070012100F08AFA4FF48000012100F058
:100D400049FA01233B64032387F84430002387F8E2
:100D5000473007F140034248194601F07FF8042369
:100D6000BB64032387F84C30002387F84F3007F12A
:100D700048033C48194601F071F83B4801F070F90E
:100D800000237B60394BBB60394BFB6000233B6128
:100D900002237B610023BB614FF48063FB614FF44E
:100DA00000633B624FF400537B624FF48073BB627D
:100DB0004FF40033FB6200233B6301237B6300237A
:100DC000BB630023FB633B1D2748194601F01AFA59
:100DD0002548012101F0A2FA00F0EAFA0023BB66DF
:100DE0000023FB6600233B6700237B6707F1680352
:100DF000184600F03FFB00233B6500233B660123C0
:100E000087F85430012387F855300023BB65002351
:100E1000FB65022387F8643007F150031548194633
:100E200000F0D4FA134802210122072300F066FBE8
:100E3000104808210222072300F060FB0D48012121
:100E400000F052FC0B48012100F032FC094801215E
:100E500000F038FB074800F01BFC7837BD4680BD2A
:100E60000004024000000240106402404C20014097
:100E7000700400200020014080B584B000AF03461C
:100E80000A46FB801346BB80B7F90420B7F9063049
:100E90009342A8BF1346FB8100237B8100233B8143
:100EA000254800F049FF254800F046FFB7F9063015
:100EB0001846FFF7F3FB6420FFF77AFAB7F906202C
:100EC000B7F904309342B8BF1346BB8122E0B7F9AB
:100ED0000E301846FFF7E2FB0120FFF769FA07F131
:100EE0000A03184600F030F87B891AB207F10803AC
:100EF0001046194600F092FFB7F90E107B891AB21E
:100F00003B891BB20E4800F017FFFB899BB20133EF
:100F10009BB2FB810B4B1B78DBB25B0803F0010338
:100F2000DBB2002B05D1B7F90E20B7F90C309A428D
:100F3000CDDD1037BD4680BD902B0008C82B0008C2
:100F4000E42B00085404002080B584B000AF786022
:100F500001231A460B4B33F81230FB810A48022159
:100F600001F00AF803467B737B7B002B04D1FB89DD
:100F70005B429BB29BB200E0FB897A68138010371A
:100F8000BD4680BD700400200000024080B500AF67
:100F9000FFF7EAF980BD00BF80B500AF012001F086
:100FA0000BFB0346002B07D0044B1A7842F00102DA
:100FB0001A70012001F024FB80BD00BF5404002002
:100FC00080B500AF402001F0F7FA0346002B02D0B5
:100FD000402001F015FB802001F0EEFA0346002BC3
:100FE00002D0802001F00CFB80BD00BF80B500AFB7
:100FF0000848094901F0E8F90346002B08D00548E4
:10100000054901F039FA054B1A7842F002021A70CC
:1010100080BD00BF286002400088001054040020FA
:1010200080B500AF4FF08040012101F005FC034680
:10103000002B09D0054B1A7842F004021A704FF0C9
:101040008040012101F022FC80BD00BF540400203B
:1010500080B500AF0848012101F0EEFB0346002BEC
:1010600008D0064B1A7842F008021A700248012193
:1010700001F00CFC80BD00BF0004004054040020BF
:1010800080B489B000AF78600023BB6100237B612E
:101090000023FB6102233B610023FB600223BB6052
:1010A000484B9B6803F00C03BB61BB69042B07D062
:1010B000082B09D0002B3FD17B68434A1A603FE0E0
:1010C0007B68424A1A603BE03E4B5B6803F4800356
:1010D0009B0DFB603B4B5B6803F03F03BB60FB6811
:1010E000002B0DD0394ABB68B2FBF3F2354B59687F
:1010F00047F6C0730B409B0903FB02F3FB610CE056
:10110000314ABB68B2FBF3F22E4B596847F6C07305
:101110000B409B0903FB02F3FB612A4B5B6803F462
:1011200040331B0C01335B003B61FA693B69B2FB46
:10113000F3F27B681A6003E07B68234A1A6000BF01
:10114000204B9B6803F0F003BB61BB691B09BB61CB
:101150001F4ABB6913441B78DBB27B617B681A684A
:101160007B69DA407B685A60164B9B6803F4E05356
:10117000BB61BB699B0ABB61154ABB6913441B7801
:10118000DBB27B617B685A687B69DA407B689A6076
:101190000C4B9B6803F46043BB61BB695B0BBB6199
:1011A0000B4ABB6913441B78DBB27B617B685A68CE
:1011B0007B69DA407B68DA602437BD465DF8047BE2
:1011C000704700BF003802400024F40040787D01E1
:1011D0000000002080B483B000AF78600B46FB7045
:1011E000FB78002B06D00949084B1A6B7B68134328
:1011F0000B6306E00549054B1A6B7B68DB43134024
:101200000B630C37BD465DF8047B70470038024025
:1012100080B483B000AF78600B46FB70FB78002B86
:1012200006D00949084B1A6C7B6813430B6406E02F
:101230000549054B1A6C7B68DB4313400B640C3784
:10124000BD465DF8047B70470038024080B483B02F
:1012500000AF78600B46FB70FB78002B06D0094985
:10126000084B5A6C7B6813434B6406E00549054BF9
:101270005A6C7B68DB4313404B640C37BD465DF80A
:10128000047B70470038024080B483B000AF7860C0
:101290000B46FB70FB78002B06D00949084B1A6AF5
:1012A0007B6813430B6206E00549054B1A6A7B68AD
:1012B000DB4313400B620C37BD465DF8047B70477F
:1012C0000038024080B483B000AF78600B46FB70FA
:1012D000FB78002B06D00949084B5A6A7B681343F8
:1012E0004B6206E00549054B5A6A7B68DB431340B5
:1012F0004B620C37BD465DF8047B704700380240F6
:1013000080B582B000AF08200121FFF763FF4FF4E2
:1013100070433B6001233B710023BB7103237B714E
:101320000023FB713B460348194600F097FD083740
:10133000BD4680BD000C024080B586B000AF0120E4
:101340000121FFF747FF01233B6100233B75032386
:101350007B750023FB7507F110031448194600F054
:101360007DFD4FF480400121FFF770FF0020002138
:10137000FEF758FF0123BB600123BB7300233B73BF
:101380000C237B7307F10803184601F0A3F806232A
:101390003B710123FB7100237B710323BB713B1D58
:1013A000184601F03BF91837BD4680BD00000240E9
:1013B00080B500AF4FF480700121FFF783FF4FF439
:1013C00080700021FFF77EFF80BD00BF80B485B034
:1013D00000AF786039600023FB600023FB727B68FC
:1013E0005B68FB60FB6823F0407323F48073FB6051
:1013F0003B681B791A023B681B681343FA68134366
:10140000FB607B68FA685A607B689B68FB60FA68DF
:10141000174B1340FB603B681A693B68DB681A4353
:101420003B689B681A433B685B795B001343FA682F
:101430001343FB607B68FA689A607B68DB6AFB6039
:10144000FB6823F47003FB603B681B7D013BDAB251
:10145000FB7A1343FB72FB7A1B05FA681343FB60AC
:101460007B68FA68DA621437BD465DF8047B704722
:10147000FDF7FFC080B485B000AF78600023FB604B
:101480000E4B5B68FB60FA680D4B1340FB607B689A
:101490001A687B685B681A437B689B681A437B68A1
:1014A000DB681343FA681343FB60044AFB6853602C
:1014B0001437BD465DF8047B704700BF0023014030
:1014C000E030FCFF80B483B000AF78600B46FB7067
:1014D000FB78002B06D07B689B6843F001027B6899
:1014E0009A6005E07B689B6823F001027B689A6044
:1014F0000C37BD465DF8047B704700BF80B485B0F3
:1015000000AF7860084611461A460346FB700B464A
:10151000BB7013467B700023FB600023BB60FB782D
:10152000092B23D97B68DB68FB60FB78A3F10A02F7
:1015300013465B001344072202FA03F3BB60BB6847
:10154000DB43FA681340FB607978FB78A3F10A0269
:1015500013465B00134401FA03F3BB60FA68BB68EF
:101560001343FB607B68FA68DA601EE07B681B69E6
:10157000FB60FA7813465B001344072202FA03F378
:10158000BB60BB68DB43FA681340FB607978FA788C
:1015900013465B00134401FA03F3BB60FA68BB68AF
:1015A0001343FB607B68FA681A61BB78062B21D86D
:1015B0007B685B6BFB60BB785A1E13469B00134431
:1015C0001F2202FA03F3BB60BB68DB43FA681340D7
:1015D000FB60F978BB785A1E13469B00134401FA4E
:1015E00003F3BB60FA68BB681343FB607B68FA686F
:1015F0005A6347E0BB780C2B21D87B681B6BFB60E0
:10160000BB78DA1F13469B0013441F2202FA03F330
:10161000BB60BB68DB43FA681340FB60F978BB78BA
:10162000DA1F13469B00134401FA03F3BB60FA6808
:10163000BB681343FB607B68FA681A6322E07B682F
:10164000DB6AFB60BB78A3F10D0213469B001344D9
:101650001F2202FA03F3BB60BB68DB43FA68134046
:10166000FB60F978BB78A3F10D0213469B0013448D
:1016700001FA03F3BB60FA68BB681343FB607B6845
:10168000FA68DA621437BD465DF8047B704700BF24
:1016900080B483B000AF78607B689B6843F0804281
:1016A0007B689A600C37BD465DF8047B704700BFCD
:1016B00080B483B000AF78600B46FB70FB78002BE2
:1016C00006D07B689B6843F480727B689A6005E073
:1016D0007B689B6823F480727B689A600C37BD46F8
:1016E0005DF8047B704700BF80B483B000AF7860C2
:1016F0000B46FB70FB78002B06D07B689B6843F49D
:1017000000727B689A6005E07B689B6823F4007236
:101710007B689A600C37BD465DF8047B704700BF5C
:1017200080B582B000AF0346FB7100BF074840217F
:10173000FEF760FF0346012BF8D1FB799BB203480B
:101740001946FEF721FF0837BD4680BD004800401E
:1017500080B483B000AF78600B46FB707B68FA788A
:101760001A70012318460C37BD465DF8047B70479C
:1017700080B485B000AF786039600023FB600AE078
:101780007B685A1C7A603A68511C396012781A706A
:10179000FB680133FB603B681B78002BF0D1FB68D2
:1017A00018461437BD465DF8047B704780B586B097
:1017B00000AFF8607A603B600B46FB7200237B61F0
:1017C0007B68013B7B603B68092B10D93B681E4A54
:1017D000A2FB0323DB08FA7AF86811467A68FFF760
:1017E000E5FF78617B69FA681344FB6011E00DE066
:1017F000FB7AF8681946FFF7ABFFFB680133FB6023
:101800007B6901337B617B68013B7B607B68002BDC
:10181000EEDC39680C4BA3FB0123DA0813469B006E
:1018200013445B00CA1AD3B23033DBB2F8681946EE
:10183000FFF78EFF02467B6913447B617B69184684
:101840001837BD4680BD00BFCDCCCCCC90B587B09D
:1018500000AFF8607A603B600B46FB7200237B614F
:101860003B68002B03DA3B685B423B6101E03B686D
:101870003B617B68013B7B603B69092B25D93B6859
:10188000002B0FDA3B69314AA2FB0323DB085B42E2
:101890001C46FB7AF86819467A682346FFF7D6FF9C
:1018A00078610DE03B69294AA2FB0323DB081C4653
:1018B000FB7AF86819467A682346FFF7C7FF786114
:1018C0007B69FA681344FB6025E03B68002B02DA71
:1018D0007B68013B7B600DE0FB7AF8681946FFF7F7
:1018E00037FFFB680133FB607B6901337B617B68F9
:1018F000013B7B607B68002BEEDC3B68002B0ADA47
:10190000F8682D21FFF724FF02467B6913447B61B1
:10191000FB680133FB6039690C4BA3FB0123DA0838
:1019200013469B0013445B00CA1AD3B23033DBB2B8
:10193000F8681946FFF70CFF02467B6913447B6188
:101940007B6918461C37BD4690BD00BFCDCCCCCCC2
:1019500090B589B002AFF8607A601A460B46FB7208
:101960001346BB7200237B617B68013B7B60BB6AD3
:101970001B09002B13D0BB6A1B09FA7ABC7A0093AF
:10198000F86811467A682346FFF7E2FF02467B6952
:1019900013447B617B69FA681344FB6011E00DE03E
:1019A000FB7AF8681946FFF7D3FEFB680133FB604A
:1019B0007B6901337B617B68013B7B607B68002B2B
:1019C000EEDCBB6A03F00F03092B0BD8BB6ADBB25A
:1019D00003F00F03DBB23033DBB2F8681946FFF7D0
:1019E000B7FE19E0BB7A002B0BD0BB6ADBB203F069
:1019F0000F03DBB23733DBB2F8681946FFF7A8FEF6
:101A00000AE0BB6ADBB203F00F03DBB25733DBB291
:101A1000F8681946FFF79CFE7B6901337B617B699F
:101A200018461C37BD4690BD90B58BB002AFF8602C
:101A3000B9607A603B600023BB6100237B61FB6877
:101A4000002B02D0FB6800221A70FCE07B681B7838
:101A5000252B0BD0FB685A1CFA607A68511C796000
:101A600012781A707B6901337B61ECE07B6801338B
:101A70001B78252B0BD1FB685A1CFA6025221A70A3
:101A80007B6802337B607B6901337B61DBE0202371
:101A9000FB770023BB777B6801337B607B681B7817
:101AA000302B04D13023FB777B6801337B600EE061
:101AB000BB7F1A46920013445B00DAB27B681B7846
:101AC0001344DBB2303BBB777B6801337B607B68C0
:101AD0001B782F2B03D97B681B78392BE8D9BA7F69
:101AE0007B6913441A46BB689A4205D9BB68DAB2CF
:101AF0007B69DBB2D31ABB777B681B78583B202B02
:101B000000F2938001A252F823F000BFE31B00080B
:101B10002B1C00082B1C00082B1C00082B1C000889
:101B20002B1C00082B1C00082B1C00082B1C000879
:101B30002B1C00082B1C0008151C0008911B00081A
:101B40002B1C00082B1C00082B1C00082B1C000859
:101B5000911B00082B1C00082B1C00082B1C0008E4
:101B60002B1C00082B1C00082B1C00082B1C000839
:101B70002B1C00082B1C0008011C00082B1C000853
:101B8000AB1B00082B1C00082B1C0008C51B000801
:101B9000BC7F3B681A1D3A601B68FA7FF8681146E3
:101BA0002246FFF753FEB86142E0BC7F3B681A1D36
:101BB0003A601B68FA7FF86811462246FFF7F6FD87
:101BC000B86135E0BC7F3B681A1D3A601B68FA7F3C
:101BD0000093F868114622460023FFF7B9FEB8616A
:101BE00026E0BC7F3B681A1D3A601B68FA7F0093B1
:101BF000F868114622460123FFF7AAFEB86117E0F4
:101C00003B681A1D3A601B68F8681946FFF7B0FD7B
:101C1000B8610DE03B681A1D3A601B68DBB2F868DA
:101C20001946FFF795FDB86102E04FF0FF3325E05C
:101C30007B6801337B60BB69FA681344FB607A6997
:101C4000BB6913447B617B681B78002B04D07A69E5
:101C5000BB689A42FFF4FAAE7A69BB689A4203D233
:101C6000FB6800221A7008E0FB68013BFB60FB6820
:101C700000221A707B69013B7B617B69184624371F
:101C8000BD4690BD80B584B000AFF860B9607A60A1
:101C9000F8686421BA687B68FFF7C6FE03461846F9
:101CA0001037BD4680BD00BFB0B5A6B000AFF8602C
:101CB000B9607A60144B07F110041D460FCD0FC4B4
:101CC0000FCD0FC42B68236007F134031846B968A1
:101CD0007A68FFF7D7FF0346632B09DD0B4B1B68C0
:101CE000DB6807F110021046194600F059F8FEE7CC
:101CF00007F134031846F96800F052F80346184615
:101D00009837BD46B0BD00BFF02B00083804002056
:101D100080B582B000AF78603960064B1B689B6865
:101D2000184679683A68FFF7BFFF03461846083738
:101D3000BD4680BD380400200FB480B582B000AF2E
:101D400007F114033B6038693968FFF7E1FF7860F9
:101D50007B6818460837BD46BDE8804004B0704730
:101D600080B582B000AF786039600C4B1B689A6810
:101D70003B689A4205D0094B1B68DA683B689A4277
:101D800006D17B68DBB21846FFF7CAFC7B6801E02E
:101D90004FF0FF3318460837BD4680BD3804002099
:101DA00080B584B000AF786039600023FB6012E03A
:101DB0007B681B7818463968FFF7D2FF0346B3F1FA
:101DC000FF3F02D14FF0FF330AE0FB680133FB60B5
:101DD0007B6801337B607B681B78002BE8D1FB6854
:101DE00018461037BD4680BD80B582B000AF0120D7
:101DF0000121FFF7EFF900233B7102233B60002331
:101E0000FB7103237B713B460348194600F026F81B
:101E10000837BD4680BD00BF0000024080B485B0D9
:101E200000AF0346B960FB81B7F90E3007EE903A78
:101E3000F8EEE77A9FED087A67EE877AFDEEE77AAB
:101E4000C7ED017ABB889AB2BB681A801437BD46C9
:101E50005DF8047B704700BF710BF73F80B487B01B
:101E600000AF7860396000237B6100233B61002371
:101E7000FB6000237B6176E07B69012202FA03F3B9
:101E80003B613B681A683B691340FB60FA683B6939
:101E90009A4265D17B681A687B695B001946032307
:101EA0008B40DB431A407B681A607B681A683B688A
:101EB0001B7919467B695B0001FA03F31A437B68BF
:101EC0001A603B681B79012B03D03B681B79022BFE
:101ED0002ED17B689A687B695B00194603238B408F
:101EE000DB431A407B689A607B689A683B685B7941
:101EF00019467B695B0001FA03F31A437B689A6019
:101F00007B685A687B699BB2194601238B40DB438F
:101F10001A407B685A607B685B683A689279114620
:101F20007A6992B201FA02F292B21A437B685A605D
:101F30007B68DA687B699BB25B00032101FA03F3DB
:101F4000DB431A407B68DA607B68DA683B68DB79E0
:101F500019467B695B0001FA03F31A437B68DA6078
:101F60007B6901337B617B690F2B85D91C37BD46AB
:101F70005DF8047B704700BF80B485B000AF786027
:101F80000B467B800023FB737B681A697B881340B8
:101F9000002B02D00123FB7301E00023FB73FB7BCA
:101FA00018461437BD465DF8047B704780B483B093
:101FB00000AF78600B467B807B685A697B885A400B
:101FC0007B685A610C37BD465DF8047B704700BFE3
:101FD00080B485B000AF78600B467B8013467B7081
:101FE0000023FB600023BB607B787A8802F0070245
:101FF00092009340FB607B88DB089BB218467B888D
:10200000DB089BB21A467B68083253F822207B8893
:1020100003F007039B0019460F238B40DB4302EAC2
:1020200003017B6800F1080243F822107B88DB087B
:102030009BB21A467B68083253F82220FB68134390
:10204000BB607B88DB089BB21A467B680832B968A4
:1020500043F822101437BD465DF8047B704700BF7B
:1020600080B483B000AF78607B681B6823F0010206
:102070007B681A607B6800221A607B6800225A60C5
:102080007B6800229A607B680022DA607B6800220D
:102090001A617B6821225A617B68454A934203D1C9
:1020A000444B3D229A607EE07B68434A934204D1D0
:1020B000404B4FF474629A6075E07B683F4A9342EC
:1020C00004D13C4B4FF474129A606CE07B683C4A3C
:1020D000934204D1374B4FF074629A6063E07B689F
:1020E000384A934203D1334B374ADA605BE07B686E
:1020F000364A934203D12F4B354ADA6053E07B686E
:10210000344A934203D12B4B334ADA604BE07B686D
:10211000324A934204D1274B4FF03D52DA6042E0FD
:102120007B682F4A934203D12E4B3D229A603AE0BE
:102130007B682D4A934204D12A4B4FF474629A6013
:1021400031E07B68294A934204D1264B4FF4741244
:102150009A6028E07B68264A934204D1214B4FF0D5
:1021600074629A601FE07B68224A934203D11D4B40
:10217000154ADA6017E07B681F4A934203D1194B76
:10218000134ADA600FE07B681C4A934203D1154B77
:10219000114ADA6007E07B68194A934203D1114B78
:1021A0004FF03D52DA600C37BD465DF8047B704756
:1021B000106002400060024028600240406002401F
:1021C00058600240706002403D000020886002407C
:1021D000400F0020A060024000003D20B860024097
:1021E00010640240006402402864024040640240DF
:1021F000586402407064024088640240A064024057
:10220000B864024080B485B000AF786039600023C4
:10221000FB607B681B68FB60FA68244B1340FB6023
:102220003B681A683B68DB681A433B685B691A4382
:102230003B689B691A433B68DB691A433B681B6A2E
:102240001A433B685B6A1A433B689B6A1A433B68C4
:102250005B6B1A433B689B6B1343FA681343FB6049
:102260007B68FA681A607B685B69FB60FB6823F037
:102270000703FB603B68DA6A3B681B6B1343FA6831
:102280001343FB607B68FA685A613B681A697B6894
:102290005A603B685A687B689A603B689A687B68BA
:1022A000DA601437BD465DF8047B70473F801CF050
:1022B00080B483B000AF78607B6800221A607B68CE
:1022C00000225A607B6800229A607B680022DA60F4
:1022D0007B6800221A617B6800225A617B680022B9
:1022E0009A617B680022DA617B6800221A627B684F
:1022F00000225A627B6800229A627B680022DA62BE
:102300007B6800221A637B6800225A637B68002284
:102310009A630C37BD465DF8047B704780B483B088
:1023200000AF78600B46FB70FB78002B06D07B6813
:102330001B6843F001027B681A6005E07B681B683C
:1023400023F001027B681A600C37BD465DF8047B00
:10235000704700BF80B485B000AFF860B960134625
:10236000FB71BB6803F08003002B0FD0FB79002BBF
:1023700006D0FB685B6943F08002FB685A6105E0A8
:10238000FB685B6923F08002FB685A61BB68802BA5
:1023900014D0FB79002B08D0FB681A68BB6803F0E7
:1023A0001E031A43FB681A6008E0FB681A68BB68E2
:1023B00003F01E03DB431A40FB681A601437BD4666
:1023C0005DF8047B704700BF80B487B000AF7860D1
:1023D00039600023FB750023FB600023BB607B6832
:1023E000224A934202D8224B3B6101E0214B3B61E0
:1023F0003B6823F0F02323F0C313002B0AD03B6883
:10240000DB0A03F01E03FB607B681A68FB6813405D
:10241000BB6004E07B685B6903F08003BB603B68E2
:1024200003F00053002B03D03B695B68FB6002E0C4
:102430003B691B68FB60FB6823F0F02323F08213E9
:10244000FB60FA683B681340002B05D0BB68002B8B
:1024500002D00123FB7501E00023FB75FB7D1846CC
:102460001C37BD465DF8047B704700BF0F64024017
:10247000006002400064024080B485B000AF786024
:1024800039607B68104A934202D8104BFB6001E030
:102490000F4BFB603B6803F00053002B07D03B68F9
:1024A00023F0F02323F08213FA68D36006E03B6840
:1024B00023F0F02323F08213FA6893601437BD46AB
:1024C0005DF8047B704700BF0F640240006002406B
:1024D0000064024080B485B000AF78600023FB60E8
:1024E000344BFB607B689B79002B4FD03149314BDB
:1024F0001A687B681B68DB4313400B602D492D4B2A
:102500005A687B681B68DB4313404B607B681B7910
:102510001A46FB681344FB60FB68FA6811687A6826
:1025200012680A431A602349224B9A687B681B6829
:10253000DB4313408B601F491E4BDA687B681B68C6
:10254000DB431340CB607B685B79102B0ED11949BC
:10255000184B9A687B681B6813438B601549154BB1
:10256000DA687B681B681343CB601DE0114BFB608E
:102570007B685B791A46FB681344FB60FB68FA686A
:1025800011687A6812680A431A600DE07B681B794B
:102590001A46FB681344FB60FB68FA6811687A68A6
:1025A0001268D2430A401A601437BD465DF8047BB6
:1025B000704700BF003C014080B485B000AF786038
:1025C0000023FB730023BB600C4B1A687B6813402D
:1025D000BB600A4B5A697B681340002B05D0BB686F
:1025E000002B02D00123FB7301E00023FB73FB7B74
:1025F00018461437BD465DF8047B7047003C014027
:1026000080B483B000AF7860034A7B6853610C37B5
:10261000BD465DF8047B7047003C014080B485B046
:1026200000AF78600023FB730023BB730F237B7321
:102630007B68DB78002B38D0264BDB68DB4303F468
:10264000E0631B0AFB73FB7BC3F10403BB737A7B60
:10265000FB7B42FA03F37B737B685B781A46BB7B98
:1026600002FA03F3FB737B689A787B7B1340DAB240
:10267000FB7B1343FB73FB7B1B01FB73164A7B68DD
:102680001B781344FA7B83F80023134A7B681B787A
:102690005B09DBB218467B681B7803F01F0301213E
:1026A00001FA03F342F820300FE00B497B681B78F6
:1026B0005B09DBB218467B681B7803F01F0301221D
:1026C0009A4000F1200341F823201437BD465DF8FD
:1026D000047B704700ED00E000E100E080B485B0CD
:1026E00000AF786039600023FB817B681B88FB8129
:1026F0007B68284A934213D07B68274A93420FD0C5
:102700007B68B3F1804F0BD07B68244A934207D09B
:102710007B68234A934203D07B68224A934208D1C4
:10272000FB8923F07003FB813B685A88FB891343C4
:10273000FB817B681C4A93420CD07B681B4A934206
:1027400008D0FB8923F44073FB813B681A89FB891D
:102750001343FB817B68FA891A803B685A687B685F
:10276000DA623B681A887B681A857B68094A93425B
:1027700003D07B68084A934204D13B689B7A9AB2A3
:102780007B681A867B6801229A821437BD465DF801
:10279000047B704700000140000401400004004039
:1027A00000080040000C00400010004000140040F1
:1027B00080B483B000AF78600B46FB70FB78002BD1
:1027C00008D07B681B889BB243F001039AB27B68F8
:1027D0001A8007E07B681B889BB223F001039AB242
:1027E0007B681A800C37BD465DF8047B704700BFDC
:1027F00080B483B000AF78600B467B8013467B705B
:102800007B78002B08D07B689B899AB27B88134326
:102810009AB27B689A8109E07B689B899AB27B882F
:10282000DB439BB213409AB27B689A810C37BD465A
:102830005DF8047B704700BF80B485B000AF78605E
:102840000B467B800023FB730023BB8100237B812D
:102850007B681B8A9AB27B881340BB817B689B890B
:102860009AB27B8813407B81BB89002B05D07B8982
:10287000002B02D00123FB7301E00023FB73FB7BE1
:1028800018461437BD465DF8047B704780B483B0AA
:1028900000AF78600B467B807B88DB439AB27B6815
:1028A0001A820C37BD465DF8047B704780B598B03E
:1028B00000AF786008200121FEF78CFC4FF48020E7
:1028C0000121FEF7A5FC4FF400100121FEF782FC68
:1028D0004FF480400121FEF7B9FC4FF44073BB6513
:1028E000022387F85C30002387F85E30012387F8E5
:1028F0005F30032387F85D3007F1580337481946E6
:10290000FFF7ACFA354808210722FFF761FB33488F
:1029100009210722FFF75CFB4FF4E133BB6400237E
:10292000A7F84C300023A7F850300023A7F84E300A
:102930000023A7F854300C23A7F8523007F14803BE
:1029400027481946FDF744FD2648FFF789FB07F1A4
:102950000C031846FFF7ACFC234B3B610023BB6222
:102960000523FB617B687B614FF480637B620023FE
:102970003B620023BB614FF480733B630023FB6227
:102980004FF00063FB6000237B6307F10C031548E5
:102990001946FFF737FC124840210122FDF706FED9
:1029A00010480121FFF7BAFC0D480121FDF7CCFDCD
:1029B0000C233B720123FB7200237B720223BB7248
:1029C00007F108031846FFF729FE064810210122E7
:1029D000FFF7C0FC6037BD4680BD00BF000C024061
:1029E0000048004028600240044800400C000000FD
:1029F000A69B043F710BF73F000001030001040197
:102A00000802000025692025690D0A000D0A000052
:102A100020202020202020202020202020202020B6
:102A200020202020202020202020202020202020A6
:102A3000202050726F6A657420534520340D0A0DB2
:102A40000A000000202020202020202020202020FC
:102A50002020202020202020202020202020202076
:102A600020202020496E697469616C697361746902
:102A70006F6E730D0A00000055415254206574209A
:102A8000525820444D4120496E697469616C6973E4
:102A90006520617665632073756363657320210D1E
:102AA0000A0D0A00496E697469616C697361746921
:102AB0006F6E204C4544730D0A000000496E697426
:102AC00069616C69736174696F6E20647520626FEF
:102AD00075746F6E0D0A0000496E697469616C69E6
:102AE000736174696F6E2041444373206574205391
:102AF00069676E652074616368796D657472650DD0
:102B00000A000000496E697469616C6973617469D7
:102B10006F6E20456E636F646575720D0A0000006C
:102B2000496E697469616C69736174696F6E204480
:102B300041430D0A000000002020202020202020FA
:102B40002020202020202020202046696E2064653F
:102B5000206C27696E697469616C69736174696F4F
:102B60006E20646573207065726970686572697142
:102B70007565730D0A0D0A00496E697469616C69A7
:102B8000736174696F6E2054696D6572730D0A000C
:102B90002020202020202020202020202020202035
:102BA00020202020202020202020202020204465BC
:102BB0006D617272616765206475207377656570F9
:102BC0000D0A0D0A00000000436F6E7369676E65A1
:102BD0002C4144435F74616368792C52504D0D0A57
:102BE0000000000025692C25692C256900000000E3
:102BF000737464696F2E633A20696E6372656173E2
:102C000065204D41585F535452494E475F53495ACE
:042C1000450A0D0064
:102C1400000000000102030401020304060708097E
:102C2400000000000000000001000000000000009F
:102C34000000000000000000000000000000000090
:102C44000000000000000000000000000000000080
:102C54000000000000000000000000000000000070
:102C64000000000000000000000000000000000060
:10304400000000000000000010000020007A030AC5
:103054000000000000000000010203040607080944
:0400000508000000EF
:00000001FF
