:020000040800F2
:10000000900C00200109000869090008690900082E
:100010006909000869090008690900080000000072
:100020000000000000000000000000006909000856
:10003000690900080000000069090008E90B0008D0
:1000400069090008690900086909000869090008C8
:100050006909000869090008F50B0008690900082A
:1000600069090008690900086909000869090008A8
:10007000490C0008690900086909000869090008B5
:100080006909000869090008690900086909000888
:100090006909000869090008690900081D0C0008C1
:1000A0006909000869090008690900086909000868
:1000B0007D0C0008AD0C00086909000869090008FA
:1000C0006909000869090008690900086909000848
:1000D0006909000869090008690900086909000838
:1000E0006909000869090008690900086909000828
:1000F0006909000869090008690900086909000818
:100100006909000869090008690900086909000807
:1001100069090008690900086909000869090008F7
:1001200069090008690900086909000869090008E7
:1001300069090008690900086909000869090008D7
:1001400069090008690900086909000869090008C7
:1001500069090008690900086909000869090008B7
:1001600069090008690900086909000869090008A7
:100170006909000869090008690900086909000897
:10018000690900086909000880B582B000AF022043
:10019000012100F04DFEC0233B6002233B71002390
:1001A000FB710023BB7103237B71094806210222E6
:1001B00001F0B2FD06480721022201F0ADFD3B46E9
:1001C0000348194601F008FD0837BD4680BD00BF51
:1001D0000004024080B584B000AF0420012100F08B
:1001E00045FE43F6FF73BB600023BB800023BB8149
:1001F0000023FB803B1D0848194602F097FA064889
:1002000003210022002302F079FB0348012102F0C0
:10021000F7FA1037BD4680BD0008004090B484B0A6
:1002200000AF03460A46FB711346BB710023FB6017
:10023000BB7903F003039B000F2202FA03F3FB6078
:100240001649BB799B08DBB21846144ABB799B0858
:10025000DBB2023352F82320FB68DB431A40831CD5
:1002600041F823200D48BB799B08DBB21C460B4AA2
:10027000BB799B08DBB2023352F82320F979BB79B2
:1002800003F003039B0001FA03F31A43A31C40F895
:1002900023201037BD4690BC704700BF0038014096
:1002A00080B483B000AF03463960FB7197F9073023
:1002B000002B0BDA0D49FB7903F00F03043B3A687E
:1002C000D2B21201D2B20B441A7609E0084997F96A
:1002D00007303A68D2B21201D2B20B4483F800233D
:1002E0000C37BD465DF8047B704700BF00ED00E0B1
:1002F00000E100E080B582B000AF78607B68B3F1C8
:10030000807F01D3012311E00A4A7B6823F07F43F9
:10031000013B53604FF0FF300F21FFF7C1FF054B4A
:1003200000229A60034B07221A6000231846083700
:10033000BD4680BD10E000E080B500AF00BF064BB9
:100340001B68064AA2FB03239B0C1846FFF7D2FF4B
:100350000346002BF3D180BD3C04002083DE1B4309
:1003600080B400AF064B1B68002B04D0044B1B6805
:10037000013B034A1360BD465DF8047B704700BF34
:100380005004002080B483B000AF78607B68002206
:100390005A807B6800221A807B6800229A807B68E2
:1003A0000022DA800C37BD465DF8047B704700BF41
:1003B00080B483B000AF78607B6801221A707B68DC
:1003C00000225A807B6800229A800C37BD465DF877
:1003D000047B704780B58AB000AF78603960002335
:1003E0007B6200233B620023FB610023BB617B68CF
:1003F0001B8A9BB27B627B6A23F440537B623B681F
:10040000DB881A467B6A13437B627B6A9AB27B68FD
:100410001A827B689B899BB27B627B6A23F4B05310
:1004200023F00C037B623B689A883B681B8913436B
:100430009AB23B685B8913439BB21A467B6A1343AB
:100440007B627B6A9AB27B689A817B689B8A9BB24B
:100450007B627B6A23F440737B623B689B891A460C
:100460007B6A13437B627B6A9AB27B689A8207F14C
:100470000803184600F032FC7B68314A934203D0EF
:100480007B68304A934202D17B693B6201E03B6961
:100490003B627B689B899BB29BB21BB2002B0CDA40
:1004A0003A6A13469B0013449A001A443B681B683F
:1004B0005B00B2FBF3F3FB610BE03A6A13469B006F
:1004C00013449A001A443B681B689B00B2FBF3F389
:1004D000FB61FB691C4AA2FB03235B091B017B62D6
:1004E0007B6A1B09642202FB03F3FA69D31ABB611E
:1004F0007B689B899BB29BB21BB2002B0CDABB6959
:10050000DB003233104AA2FB03235B0903F007032D
:100510007A6A13437B620BE0BB691B0132330A4AE0
:10052000A2FB03235B0903F00F037A6A13437B6288
:100530007B6A9AB27B681A812837BD4680BD00BFAE
:1005400000100140001401401F85EB5180B483B0BE
:1005500000AF78600B46FB70FB78002B08D07B68FF
:100560009B899BB243F400539AB27B689A8107E05F
:100570007B689B899BB223F400539AB27B689A8173
:100580000C37BD465DF8047B704700BF80B483B074
:1005900000AF78600B467B807B88C3F308039AB278
:1005A0007B689A800C37BD465DF8047B704700BFBE
:1005B00080B483B000AF78600B467B8013467B70BD
:1005C0007B78002B08D07B689B8A9AB27B88134388
:1005D0009AB27B689A8209E07B689B8A9AB27B8890
:1005E000DB439BB213409AB27B689A820C37BD46BC
:1005F0005DF8047B704700BF80B485B000AF7860C1
:100600000B467B800023FB737B681B889AB27B8838
:1006100013409BB2002B02D00123FB7301E00023A7
:10062000FB73FB7B18461437BD465DF8047B7047AF
:1006300080B586B000AF0120012100F0F9FB4FF03A
:100640000050012100F012FC30233B6103233B7575
:100650000023FB7507F110031048194601F0BCFA9E
:1006600000F0B6F800233B600023FB6000237B60B2
:100670003B460020194600F0B9F80020012100F0A7
:10068000E7F83B461020194600F0B0F81020012191
:1006900000F0DEF81837BD4680BD00BF0000024004
:1006A00080B582B000AF0346FB80B7F9063018462C
:1006B00000F016F8084B1B889BB20020194600F08A
:1006C000EBF8064B1B889BB20020194600F0FEF8A1
:1006D0000837BD4680BD00BF5404002056040020EA
:1006E00080B584B000AF0346FB80B7F9063007EE53
:1006F000903AF8EEE77A9FED2E7A67EE877AC7EDAB
:10070000037AD7ED037A9FED2B7AF4EEC77AF1EEF8
:1007100010FA01DD284BFB60D7ED037A9FED277AB5
:10072000F4EEC77AF1EE10FA01D5254BFB60F868BC
:1007300002F018FC02460B46104619464FF0000224
:100740004FF0804302F08CFD02460B4610461946DE
:100750004FF000021B4B02F0A7FA02460B46104670
:10076000194602F065FE03469AB2174B1A80F868E4
:1007700002F0F8FB02460B46104619464FF0000205
:100780004FF0804302F06CFD02460B464FF0000034
:100790000C4902F087FA02460B461046194602F051
:1007A00047FE03469AB2094B1A801037BD4680BDFA
:1007B0003DD8E53E00F07F4500F07F4500F07FC565
:1007C00000F07FC50000A040540400205604002023
:1007D00080B500AF4FF00050012100F083FB4FF0D7
:1007E0000050002100F07EFB80BD00BF80B485B0CA
:1007F00000AF786039600023FB600023BB60134BBF
:100800001B68FB607B6840F6FE7202FA03F3DB4371
:10081000FA681340FB603B681A683B685B681A43E0
:100820003B689B681A433B68DB681343BB607B688B
:10083000BA6802FA03F3FA681343FB60034AFB68E1
:1008400013601437BD465DF8047B704700740040A8
:1008500080B483B000AF78600B46FB70FB78002B50
:1008600009D00C490B4B1A687B68012000FA03F38E
:1008700013430B6009E00749064B1A687B680120A7
:1008800000FA03F3DB4313400B600C37BD465DF801
:10089000047B70470074004080B485B000AF78607E
:1008A0000B467B800023FB60074BFB60FA687B688C
:1008B00013440833FB60FB681A467B8813601437C7
:1008C000BD465DF8047B70470074004080B485B07D
:1008D00000AF78600B467B800023FB60074BFB601A
:1008E000FA687B6813441433FB60FB681A467B8804
:1008F00013601437BD465DF8047B704700740040F8
:1009000080B582B000AF124B7B60124B3B6007E0BA
:100910003B681A1D3A607A68111D796012681A6086
:100920003B680D4A9342F3D30C480D494FF0000247
:100930008842B8BF40F8042BFADBDFF828000168D2
:1009400041F47001016000F013F80837BD4680BD26
:10095000B836000800000020500400205004002099
:100960009004002088ED00E080B400AFFEE700BFF7
:1009700080B586B000AF00F0E3F807F10C0318462D
:10098000FFF716FD3B1D1846FFF7FCFC684801F019
:1009900045FC0023FB820023BB8265E065484FF4E1
:1009A000805101F0A7F93B1D184601F033FD3B7B58
:1009B000022B34D0042B10D0012B50D1FB897B812A
:1009C0005B483B1D93E8060001F04CFC584B1B8B29
:1009D0001BB21846FFF764FE41E06422BB8A9342D3
:1009E00008D2BB8A0133BB82FB891BB21846FFF7D2
:1009F00057FE13E0BA8A642319464FF496730B44EA
:100A00009A4208DABB8A0133BB823B8A1BB2184682
:100A1000FFF746FE02E001233B7320E01FE03B8A24
:100A2000B7F916201BB29A4211D03B8AB7F91620AB
:100A30001BB29A4205DAFB8A9BB201339BB2FB825E
:100A400007E0FB8A9BB2013B9BB2FB8201E00123E2
:100A50003B73B7F916301846FFF722FE00BF364B3E
:100A60001A7822F004021A70334B1B78DBB29B0811
:100A700003F00103DBB2002B90D11AE02D484FF4B4
:100A8000804101F037F907F10C03184602F020F815
:100A90003B7B012B03D0FB89FB820023BB823B7B8A
:100AA0002648194601F026F8234B1A7822F0020254
:100AB0001A70214B1B78DBB25B0803F00103DBB239
:100AC000002BDBD10EE01B484FF4005101F012F96E
:100AD0003B1D93E8030002F05FF8174B1A7822F0F1
:100AE00008021A70144B1B78DBB2DB0803F0010319
:100AF000DBB2002BE7D113E00E484FF4004101F0C8
:100B0000F9F80B4801F08AFB02233B730023FB81B9
:100B10004FF4FA533B82084B1A7822F001021A7004
:100B2000054B1B7803F00103DBB2002BE4D134E763
:100B30006C040020000C0240880400209C34000853
:100B400080B500AFFFF7F8FB01F024FF1B4800F071
:100B5000D1FF1B4800F0CEFF1A4800F0CBFF1A4827
:100B600000F0C8FF194800F0C5FF00F0F7F9184879
:100B700000F0C0FF00F00EFA164800F0BBFF00F0D6
:100B800045FA01F00FF8144800F0B4FFFFF7FCFA43
:100B9000124800F0AFFFFFF74BFD114800F0AAFF2D
:100BA00001F054FC01F088FCFFF714FB034800F04F
:100BB000A1FF0C4800F09EFF80BD00BFB0340008CC
:100BC000B4340008E83400081C3500084835000833
:100BD000603500087C350008A8350008C4350008D9
:100BE000DC350008F435000880B500AFFFF7B8FB2E
:100BF00080BD00BF80B500AF012001F005FD0346B8
:100C0000002B07D0044B1A7842F001021A70012021
:100C100001F01EFD80BD00BF8804002080B500AF3C
:100C2000402001F0F1FC0346002B02D0402001F0EF
:100C30000FFD802001F0E8FC0346002B02D080204D
:100C400001F006FD80BD00BF80B500AF084809492E
:100C500001F05EFA0346002B08D00548054901F073
:100C6000AFFA054B1A7842F002021A7080BD00BF3D
:100C700028600240008800108804002080B500AF82
:100C80004FF08040012101F0FFFD0346002B09D009
:100C9000054B1A7842F004021A704FF0804001218F
:100CA00001F01CFE80BD00BF8804002080B500AFAD
:100CB0000848012101F0E8FD0346002B08D0064B4F
:100CC0001A7842F008021A700248012101F006FE6B
:100CD00080BD00BF000400408804002080B489B0BB
:100CE00000AF78600023BB6100237B610023FB61C0
:100CF00002233B610023FB600223BB60484B9B68DF
:100D000003F00C03BB61BB69042B07D0082B09D08F
:100D1000002B3FD17B68434A1A603FE07B68424A20
:100D20001A603BE03E4B5B6803F480039B0DFB6065
:100D30003B4B5B6803F03F03BB60FB68002B0DD0AF
:100D4000394ABB68B2FBF3F2354B596847F6C073BA
:100D50000B409B0903FB02F3FB610CE0314ABB68CB
:100D6000B2FBF3F22E4B596847F6C0730B409B0958
:100D700003FB02F3FB612A4B5B6803F440331B0C5B
:100D800001335B003B61FA693B69B2FBF3F27B68BC
:100D90001A6003E07B68234A1A6000BF204B9B68FF
:100DA00003F0F003BB61BB691B09BB611F4ABB6950
:100DB00013441B78DBB27B617B681A687B69DA407D
:100DC0007B685A60164B9B6803F4E053BB61BB69B8
:100DD0009B0ABB61154ABB6913441B78DBB27B617C
:100DE0007B685A687B69DA407B689A600C4B9B6829
:100DF00003F46043BB61BB695B0BBB610B4ABB691E
:100E000013441B78DBB27B617B685A687B69DA40EC
:100E10007B68DA602437BD465DF8047B704700BF0D
:100E2000003802400024F40000127A000000002084
:100E300080B483B000AF78600B46FB70FB78002B6A
:100E400006D00949084B1A6B7B6813430B6306E015
:100E50000549054B1A6B7B68DB4313400B630C376A
:100E6000BD465DF8047B70470038024080B483B013
:100E700000AF78600B46FB70FB78002B06D0094969
:100E8000084B1A6C7B6813430B6406E00549054B5D
:100E90001A6C7B68DB4313400B640C37BD465DF86E
:100EA000047B70470038024080B483B000AF7860A4
:100EB0000B46FB70FB78002B06D00949084B5A6C97
:100EC0007B6813434B6406E00549054B5A6C7B680D
:100ED000DB4313404B640C37BD465DF8047B704721
:100EE0000038024080B483B000AF78600B46FB70DE
:100EF000FB78002B06D00949084B1A6A7B6813431C
:100F00000B6206E00549054B1A6A7B68DB43134018
:100F10000B620C37BD465DF8047B70470038024019
:100F200080B483B000AF78600B46FB70FB78002B79
:100F300006D00949084B5A6A7B6813434B6206E0A6
:100F40000549054B5A6A7B68DB4313404B620C37FB
:100F5000BD465DF8047B70470038024080B582B022
:100F600000AF08200121FFF763FF4FF470433B609F
:100F700001233B710023BB7103237B710023FB71B1
:100F80003B460348194600F027FE0837BD4680BDA2
:100F9000000C024080B586B000AF01200121FFF7B0
:100FA00047FF01233B6100233B7503237B7500232F
:100FB000FB7507F110031448194600F00DFE4FF4BD
:100FC00080400121FFF770FF00200021FFF726F984
:100FD0000123BB600123BB7300233B730C237B7392
:100FE00007F10803184601F09DFA06233B7101231F
:100FF000FB7100237B710323BB713B1D184601F07D
:1010000035FB1837BD4680BD0000024080B59EB05C
:1010100000AF01200121FFF70BFF02200121FFF7A4
:1010200007FF4FF480700121FFF73EFF4FF480006F
:101030000121FFF7FDFE01233B64032387F84430C1
:10104000002387F8473007F140034248194600F073
:10105000C3FD0423BB64032387F84C30002387F8C7
:101060004F3007F148033C48194600F0B5FD3B48B6
:1010700000F09AFE00237B60394BBB60394BFB606C
:1010800000233B6102237B610023BB614FF480633B
:10109000FB614FF400633B624FF400537B624FF4FB
:1010A0008073BB624FF40033FB6200233B63012378
:1010B0007B630023BB630023FB633B1D274819466A
:1010C00000F044FF2548012100F0CCFF00F04EF86D
:1010D0000023BB660023FB6600233B6700237B677E
:1010E00007F16803184600F0A3F800233B650023CE
:1010F0003B66012387F85430012387F855300023DD
:10110000BB650023FB65022387F8643007F15003B9
:101110001548194600F038F81348012100F0A6F9E7
:10112000114802210122072300F0C6F80E480821C9
:101130000222072300F0C0F80B48012100F0B2F9A9
:101140000948012100F09CF8074800F07FF9783742
:10115000BD4680BD00040240000002401064024011
:101160004C2001408C0400200020014080B500AFDD
:101170004FF480700121FFF7D3FE4FF480700021FF
:10118000FFF7CEFE80BD00BF80B485B000AF7860B1
:1011900039600023FB600023FB727B685B68FB60A7
:1011A000FB6823F0407323F48073FB603B681B797A
:1011B0001A023B681B681343FA681343FB607B68A1
:1011C000FA685A607B689B68FB60FA68174B1340AB
:1011D000FB603B681A693B68DB681A433B689B68A5
:1011E0001A433B685B795B001343FA681343FB6067
:1011F0007B68FA689A607B68DB6AFB60FB6823F4B3
:101200007003FB603B681B7D013BDAB2FB7A134342
:10121000FB72FB7A1B05FA681343FB607B68FA6874
:10122000DA621437BD465DF8047B7047FDF7FFC0F6
:1012300080B485B000AF78600023FB600E4B5B6824
:10124000FB60FA680D4B1340FB607B681A687B6893
:101250005B681A437B689B681A437B68DB681343AF
:10126000FA681343FB60044AFB6853601437BD46B9
:101270005DF8047B704700BF00230140E030FCFFB5
:1012800080B483B000AF78600B46FB70FB78002B16
:1012900006D07B689B6843F001027B689A6005E09A
:1012A0007B689B6823F001027B689A600C37BD461F
:1012B0005DF8047B704700BF80B485B000AF7860F4
:1012C000084611461A460346FB700B46BB70134690
:1012D0007B700023FB600023BB60FB78092B23D9C4
:1012E0007B68DB68FB60FB78A3F10A0213465B00B6
:1012F0001344072202FA03F3BB60BB68DB43FA68BE
:101300001340FB607978FB78A3F10A0213465B0077
:10131000134401FA03F3BB60FA68BB681343FB6034
:101320007B68FA68DA601EE07B681B69FB60FA780C
:1013300013465B001344072202FA03F3BB60BB6849
:10134000DB43FA681340FB607978FA7813465B0058
:10135000134401FA03F3BB60FA68BB681343FB60F4
:101360007B68FA681A61BB78062B21D87B685B6BB7
:10137000FB60BB785A1E13469B0013441F2202FADF
:1013800003F3BB60BB68DB43FA681340FB60F9788A
:10139000BB785A1E13469B00134401FA03F3BB604B
:1013A000FA68BB681343FB607B68FA685A6347E0DE
:1013B000BB780C2B21D87B681B6BFB60BB78DA1FDA
:1013C00013469B0013441F2202FA03F3BB60BB6861
:1013D000DB43FA681340FB60F978BB78DA1F1346E9
:1013E0009B00134401FA03F3BB60FA68BB68134324
:1013F000FB607B68FA681A6322E07B68DB6AFB604B
:10140000BB78A3F10D0213469B0013441F2202FA7E
:1014100003F3BB60BB68DB43FA681340FB60F978F9
:10142000BB78A3F10D0213469B00134401FA03F3AA
:10143000BB60FA68BB681343FB607B68FA68DA62DA
:101440001437BD465DF8047B704700BF80B483B09D
:1014500000AF78607B689B6843F080427B689A604D
:101460000C37BD465DF8047B704700BF80B483B085
:1014700000AF78600B46FB70FB78002B06D07B68D2
:101480009B6843F480727B689A6005E07B689B6888
:1014900023F480727B689A600C37BD465DF8047B4C
:1014A000704700BF80B483B000AF78600B46FB701C
:1014B000FB78002B06D07B689B6843F400727B6846
:1014C0009A6005E07B689B6823F400727B689A60F1
:1014D0000C37BD465DF8047B704700BF80B582B015
:1014E00000AF0346FB7100BF07484021FFF784F8B7
:1014F0000346012BF8D1FB799BB203481946FFF74D
:1015000045F80837BD4680BD0048004080B483B030
:1015100000AF78600B46FB707B68FA781A70012385
:1015200018460C37BD465DF8047B704780B485B023
:1015300000AF786039600023FB600AE07B685A1CCA
:101540007A603A68511C396012781A70FB6801336E
:10155000FB603B681B78002BF0D1FB681846143702
:10156000BD465DF8047B704780B586B000AFF8607B
:101570007A603B600B46FB7200237B617B68013B1A
:101580007B603B68092B10D93B681E4AA2FB0323F2
:10159000DB08FA7AF86811467A68FFF7E5FF7861A8
:1015A0007B69FA681344FB6011E00DE0FB7AF86890
:1015B0001946FFF7ABFFFB680133FB607B69013322
:1015C0007B617B68013B7B607B68002BEEDC3968CC
:1015D0000C4BA3FB0123DA0813469B0013445B006A
:1015E000CA1AD3B23033DBB2F8681946FFF78EFF60
:1015F00002467B6913447B617B6918461837BD46F8
:1016000080BD00BFCDCCCCCC90B587B000AFF8602A
:101610007A603B600B46FB7200237B613B68002BCA
:1016200003DA3B685B423B6101E03B683B617B68FE
:10163000013B7B603B69092B25D93B68002B0FDA06
:101640003B69314AA2FB0323DB085B421C46FB7A61
:10165000F86819467A682346FFF7D6FF78610DE0EF
:101660003B69294AA2FB0323DB081C46FB7AF86886
:1016700019467A682346FFF7C7FF78617B69FA68E5
:101680001344FB6025E03B68002B02DA7B68013BDA
:101690007B600DE0FB7AF8681946FFF737FFFB68BF
:1016A0000133FB607B6901337B617B68013B7B60BD
:1016B0007B68002BEEDC3B68002B0ADAF8682D21F2
:1016C000FFF724FF02467B6913447B61FB6801330B
:1016D000FB6039690C4BA3FB0123DA0813469B001E
:1016E00013445B00CA1AD3B23033DBB2F868194630
:1016F000FFF70CFF02467B6913447B617B69184648
:101700001C37BD4690BD00BFCDCCCCCC90B589B0C8
:1017100002AFF8607A601A460B46FB721346BB7242
:1017200000237B617B68013B7B60BB6A1B09002B4C
:1017300013D0BB6A1B09FA7ABC7A0093F868114689
:101740007A682346FFF7E2FF02467B6913447B6118
:101750007B69FA681344FB6011E00DE0FB7AF868DE
:101760001946FFF7D3FEFB680133FB607B69013349
:101770007B617B68013B7B607B68002BEEDCBB6A96
:1017800003F00F03092B0BD8BB6ADBB203F00F0386
:10179000DBB23033DBB2F8681946FFF7B7FE19E069
:1017A000BB7A002B0BD0BB6ADBB203F00F03DBB2BA
:1017B0003733DBB2F8681946FFF7A8FE0AE0BB6AC8
:1017C000DBB203F00F03DBB25733DBB2F868194624
:1017D000FFF79CFE7B6901337B617B6918461C37F0
:1017E000BD4690BD90B58BB002AFF860B9607A602D
:1017F0003B600023BB6100237B61FB68002B02D0B0
:10180000FB6800221A70FCE07B681B78252B0BD04C
:10181000FB685A1CFA607A68511C796012781A7059
:101820007B6901337B61ECE07B6801331B78252BFE
:101830000BD1FB685A1CFA6025221A707B680233B0
:101840007B607B6901337B61DBE02023FB77002336
:10185000BB777B6801337B607B681B78302B04D1BE
:101860003023FB777B6801337B600EE0BB7F1A4639
:10187000920013445B00DAB27B681B781344DBB23E
:10188000303BBB777B6801337B607B681B782F2BF9
:1018900003D97B681B78392BE8D9BA7F7B6913445D
:1018A0001A46BB689A4205D9BB68DAB27B69DBB2DB
:1018B000D31ABB777B681B78583B202B00F29380B0
:1018C00001A252F823F000BF9F190008E719000891
:1018D000E7190008E7190008E7190008E7190008E8
:1018E000E7190008E7190008E7190008E7190008D8
:1018F000E7190008D11900084D190008E719000878
:10190000E7190008E7190008E71900084D19000851
:10191000E7190008E7190008E7190008E7190008A7
:10192000E7190008E7190008E7190008E719000897
:10193000E7190008BD190008E71900086719000831
:10194000E7190008E719000881190008BC7F3B6807
:101950001A1D3A601B68FA7FF86811462246FFF7A5
:1019600053FEB86142E0BC7F3B681A1D3A601B68B9
:10197000FA7FF86811462246FFF7F6FDB86135E0B8
:10198000BC7F3B681A1D3A601B68FA7F0093F868B9
:10199000114622460023FFF7B9FEB86126E0BC7F5E
:1019A0003B681A1D3A601B68FA7F0093F86811467D
:1019B00022460123FFF7AAFEB86117E03B681A1D13
:1019C0003A601B68F8681946FFF7B0FDB8610DE092
:1019D0003B681A1D3A601B68DBB2F8681946FFF7CE
:1019E00095FDB86102E04FF0FF3325E07B680133DD
:1019F0007B60BB69FA681344FB607A69BB69134476
:101A00007B617B681B78002B04D07A69BB689A42A3
:101A1000FFF4FAAE7A69BB689A4203D2FB680022EF
:101A20001A7008E0FB68013BFB60FB6800221A703B
:101A30007B69013B7B617B6918462437BD4690BDBD
:101A400080B584B000AFF860B9607A60F86864214E
:101A5000BA687B68FFF7C6FE034618461037BD46D6
:101A600080BD00BFB0B5A6B000AFF860B9607A60C5
:101A7000144B07F110041D460FCD0FC40FCD0FC43A
:101A80002B68236007F134031846B9687A68FFF7BA
:101A9000D7FF0346632B09DD0B4B1B68DB6807F19F
:101AA00010021046194600F059F8FEE707F134031A
:101AB0001846F96800F052F8034618469837BD46B4
:101AC000B0BD00BF943600083804002080B582B055
:101AD00000AF78603960064B1B689B6818467968D0
:101AE0003A68FFF7BFFF034618460837BD4680BD7A
:101AF000380400200FB480B582B000AF07F11403A2
:101B00003B6038693968FFF7E1FF78607B68184609
:101B10000837BD46BDE8804004B0704780B582B04C
:101B200000AF786039600C4B1B689A683B689A423A
:101B300005D0094B1B68DA683B689A4206D17B687E
:101B4000DBB21846FFF7CAFC7B6801E04FF0FF33B9
:101B500018460837BD4680BD3804002080B584B0E3
:101B600000AF786039600023FB6012E07B681B786F
:101B700018463968FFF7D2FF0346B3F1FF3F02D1A1
:101B80004FF0FF330AE0FB680133FB607B680133F1
:101B90007B607B681B78002BE8D1FB681846103708
:101BA000BD4680BD80B582B000AF01200121FFF7A6
:101BB0003FF900233B7102233B600023FB710323A9
:101BC0007B713B460348194600F006F80837BD46CE
:101BD00080BD00BF0000024080B487B000AF7860D5
:101BE000396000237B6100233B610023FB600023FD
:101BF0007B6176E07B69012202FA03F33B613B687B
:101C00001A683B691340FB60FA683B699A4265D1E8
:101C10007B681A687B695B00194603238B40DB43B2
:101C20001A407B681A607B681A683B681B79194602
:101C30007B695B0001FA03F31A437B681A603B6817
:101C40001B79012B03D03B681B79022B2ED17B68BB
:101C50009A687B695B00194603238B40DB431A407B
:101C60007B689A607B689A683B685B7919467B69F8
:101C70005B0001FA03F31A437B689A607B685A6839
:101C80007B699BB2194601238B40DB431A407B687A
:101C90005A607B685B683A68927911467A6992B2B9
:101CA00001FA02F292B21A437B685A607B68DA68E2
:101CB0007B699BB25B00032101FA03F3DB431A400B
:101CC0007B68DA607B68DA683B68DB7919467B6998
:101CD0005B0001FA03F31A437B68DA607B69013326
:101CE0007B617B690F2B85D91C37BD465DF8047B72
:101CF000704700BF80B483B000AF78600B467B8034
:101D00007B685A697B885A407B685A610C37BD46AC
:101D10005DF8047B704700BF80B485B000AF786089
:101D20000B467B8013467B700023FB600023BB6067
:101D30007B787A8802F0070292009340FB607B88F0
:101D4000DB089BB218467B88DB089BB21A467B688F
:101D5000083253F822207B8803F007039B001946C2
:101D60000F238B40DB4302EA03017B6800F108028A
:101D700043F822107B88DB089BB21A467B68083246
:101D800053F82220FB681343BB607B88DB089BB2BF
:101D90001A467B680832B96843F822101437BD46EA
:101DA0005DF8047B704700BF80B483B000AF7860FB
:101DB0007B681B6823F001027B681A607B68002245
:101DC0001A607B6800225A607B6800229A607B68F8
:101DD0000022DA607B6800221A617B6821225A6146
:101DE0007B68454A934203D1444B3D229A607EE092
:101DF0007B68434A934204D1404B4FF474629A602B
:101E000075E07B683F4A934204D13C4B4FF4741217
:101E10009A606CE07B683C4A934204D1374B4FF0A8
:101E200074629A6063E07B68384A934203D1334B13
:101E3000374ADA605BE07B68364A934203D12F4B26
:101E4000354ADA6053E07B68344A934203D12B4B26
:101E5000334ADA604BE07B68324A934204D1274B25
:101E60004FF03D52DA6042E07B682F4A934203D143
:101E70002E4B3D229A603AE07B682D4A934204D172
:101E80002A4B4FF474629A6031E07B68294A93428E
:101E900004D1264B4FF474129A6028E07B68264ADE
:101EA000934204D1214B4FF074629A601FE07B682B
:101EB000224A934203D11D4B154ADA6017E07B6832
:101EC0001F4A934203D1194B134ADA600FE07B6833
:101ED0001C4A934203D1154B114ADA6007E07B6834
:101EE000194A934203D1114B4FF03D52DA600C373F
:101EF000BD465DF8047B7047106002400060024000
:101F00002860024040600240586002407060024019
:101F10003D00002088600240400F0020A060024089
:101F200000003D20B860024010640240006402409E
:101F300028640240406402405864024070640240D9
:101F400088640240A0640240B864024080B485B056
:101F500000AF786039600023FB607B681B68FB6022
:101F6000FA68244B1340FB603B681A683B68DB68E7
:101F70001A433B685B691A433B689B691A433B6899
:101F8000DB691A433B681B6A1A433B685B6A1A4366
:101F90003B689B6A1A433B685B6B1A433B689B6BCD
:101FA0001343FA681343FB607B68FA681A607B6826
:101FB0005B69FB60FB6823F00703FB603B68DA6A40
:101FC0003B681B6B1343FA681343FB607B68FA683A
:101FD0005A613B681A697B685A603B685A687B683B
:101FE0009A603B689A687B68DA601437BD465DF892
:101FF000047B70473F801CF080B483B000AF7860F2
:102000007B6800221A607B6800225A607B6800228D
:102010009A607B680022DA607B6800221A617B6824
:1020200000225A617B6800229A617B680022DA6193
:102030007B6800221A627B6800225A627B68002259
:102040009A627B680022DA627B6800221A637B68EE
:1020500000225A637B6800229A630C37BD465DF804
:10206000047B704780B483B000AF78600B46FB7090
:10207000FB78002B06D07B681B6843F001027B686D
:102080001A6005E07B681B6823F001027B681A6018
:102090000C37BD465DF8047B704700BF80B485B047
:1020A00000AFF860B9601346FB71BB6803F08003B2
:1020B000002B0FD0FB79002B06D0FB685B6943F047
:1020C0008002FB685A6105E0FB685B6923F08002CF
:1020D000FB685A61BB68802B14D0FB79002B08D0B9
:1020E000FB681A68BB6803F01E031A43FB681A609A
:1020F00008E0FB681A68BB6803F01E03DB431A4064
:10210000FB681A601437BD465DF8047B704700BF5A
:1021100080B487B000AF786039600023FB7500237E
:10212000FB600023BB607B68224A934202D8224BAB
:102130003B6101E0214B3B613B6823F0F02323F03E
:10214000C313002B0AD03B68DB0A03F01E03FB60BD
:102150007B681A68FB681340BB6004E07B685B69BE
:1021600003F08003BB603B6803F00053002B03D0F7
:102170003B695B68FB6002E03B691B68FB60FB68D6
:1021800023F0F02323F08213FB60FA683B681340CE
:10219000002B05D0BB68002B02D00123FB7501E0AA
:1021A0000023FB75FB7D18461C37BD465DF8047B9C
:1021B000704700BF0F6402400060024000640240AC
:1021C00080B485B000AF786039607B68104A934274
:1021D00002D8104BFB6001E00F4BFB603B6803F043
:1021E0000053002B07D03B6823F0F02323F0821329
:1021F000FA68D36006E03B6823F0F02323F08213F3
:10220000FA6893601437BD465DF8047B704700BFE1
:102210000F640240006002400064024080B483B05A
:1022200000AF78607B6800221A807B684FF0000264
:102230005A607B684FF000029A604FF07E527B68D4
:10224000DA604FF07E527B681A614FF000027B68C3
:102250005A617B6800221A830C37BD465DF8047B07
:10226000704700BF80B487B000AFF8603B1D83E8C3
:1022700006004FF000037B617B891BB207EE903AAA
:10228000B8EEE77A3B891BB207EE903AF8EEE77AB0
:1022900077EE677AFB68C3ED017AFB6893ED027A0B
:1022A000FB68D3ED017A77EE277AFB68C3ED027AFB
:1022B000FB6893ED027A4FF4FA531BB207EE903AA3
:1022C000F8EEE77AB4EEE77AF1EE10FA09DD4FF4B2
:1022D000FA531BB207EE903AF8EEE77AFB68C3EDCB
:1022E000027AFB6893ED027A4FF4FA531BB25B4219
:1022F00007EE903AF8EEE77AB4EEE77AF1EE10FAEC
:102300000AD54FF4FA531BB25B4207EE903AF8EE4F
:10231000E77AFB68C3ED027AFB6893ED037AFB680A
:10232000D3ED017A67EE277A374BC3ED007AFB686D
:1023300093ED047AFB68D3ED027A27EE277A334BCC
:10234000D3ED007A77EE277A304BC3ED007AFB6845
:1023500093ED057AFB681B881AB23B891BB2D31A2E
:1023600007EE903AF8EEE77A67EE277A284BC3ED4E
:10237000007A254B93ED007A244BD3ED007A37EEAB
:10238000277A234BD3ED007A77EE277AFDEEE77AB2
:10239000C7ED007A3B889BB21BB207EE903AF8EE8D
:1023A000E77AC7ED057A4FF4FA531BB207EE903A7D
:1023B000B8EEE77AD7ED057AB4EEE77AF1EE10FAE7
:1023C00003D54FF4FA52FB681A834FF4FA531BB249
:1023D0005B4207EE903AB8EEE77AD7ED057AB4EEB5
:1023E000E77AF1EE10FA07DD4FF4FA539BB25B4245
:1023F0009BB29AB2FB681A833A89FB681A801C3731
:10240000BD465DF8047B7047580400205C04002042
:102410006004002080B483B000AF78607B68002245
:102420005A8000231A46084B33F812309BB29AB2F6
:102430007B681A807B681A887B689A800C37BD4657
:102440005DF8047B704700BF8C04002080B584B029
:1024500000AF4FF480400121FEF726FD012001214D
:10246000FEF704FD1C233B730123FB7300237B73E6
:102470000023BB7307F10C03184600F0F7F840F295
:10248000E7337B6053233B8000233B8100237B8029
:102490003B464FF08040194600F048F94FF080402D
:1024A0000121012200F0CCF94FF08040012100F021
:1024B000A7F91037BD4680BD80B584B000AF4FF49A
:1024C00080400121FEF7F0FC02200121FEF7CEFC46
:1024D0001D233B730123FB7300237B730123BB7319
:1024E00007F10C03184600F0C1F80C4B7B60532336
:1024F0003B8000233B8100237B803B4608481946F4
:1025000000F014F906480121012200F099F904486D
:10251000012100F075F91037BD4680BD9F8601008E
:102520000004004080B485B000AF78600023FB60F9
:10253000344BFB607B689B79002B4FD03149314B8A
:102540001A687B681B68DB4313400B602D492D4BD9
:102550005A687B681B68DB4313404B607B681B79C0
:102560001A46FB681344FB60FB68FA6811687A68D6
:1025700012680A431A602349224B9A687B681B68D9
:10258000DB4313408B601F491E4BDA687B681B6876
:10259000DB431340CB607B685B79102B0ED119496C
:1025A000184B9A687B681B6813438B601549154B61
:1025B000DA687B681B681343CB601DE0114BFB603E
:1025C0007B685B791A46FB681344FB60FB68FA681A
:1025D00011687A6812680A431A600DE07B681B79FB
:1025E0001A46FB681344FB60FB68FA6811687A6856
:1025F0001268D2430A401A601437BD465DF8047B66
:10260000704700BF003C014080B485B000AF7860E7
:102610000023FB730023BB600C4B1A687B681340DC
:10262000BB600A4B5A697B681340002B05D0BB681E
:10263000002B02D00123FB7301E00023FB73FB7B23
:1026400018461437BD465DF8047B7047003C0140D6
:1026500080B483B000AF7860034A7B6853610C3765
:10266000BD465DF8047B7047003C014080B485B0F6
:1026700000AF78600023FB730023BB730F237B73D1
:102680007B68DB78002B38D0264BDB68DB4303F418
:10269000E0631B0AFB73FB7BC3F10403BB737A7B10
:1026A000FB7B42FA03F37B737B685B781A46BB7B48
:1026B00002FA03F3FB737B689A787B7B1340DAB2F0
:1026C000FB7B1343FB73FB7B1B01FB73164A7B688D
:1026D0001B781344FA7B83F80023134A7B681B782A
:1026E0005B09DBB218467B681B7803F01F030121EE
:1026F00001FA03F342F820300FE00B497B681B78A6
:102700005B09DBB218467B681B7803F01F030122CC
:102710009A4000F1200341F823201437BD465DF8AC
:10272000047B704700ED00E000E100E080B485B07C
:1027300000AF786039600023FB817B681B88FB81D8
:102740007B68284A934213D07B68274A93420FD074
:102750007B68B3F1804F0BD07B68244A934207D04B
:102760007B68234A934203D07B68224A934208D174
:10277000FB8923F07003FB813B685A88FB89134374
:10278000FB817B681C4A93420CD07B681B4A9342B6
:1027900008D0FB8923F44073FB813B681A89FB89CD
:1027A0001343FB817B68FA891A803B685A687B680F
:1027B000DA623B681A887B681A857B68094A93420B
:1027C00003D07B68084A934204D13B689B7A9AB253
:1027D0007B681A867B6801229A821437BD465DF8B1
:1027E000047B7047000001400004014000040040E9
:1027F00000080040000C00400010004000140040A1
:1028000080B483B000AF78600B46FB70FB78002B80
:1028100008D07B681B889BB243F001039AB27B68A7
:102820001A8007E07B681B889BB223F001039AB2F1
:102830007B681A800C37BD465DF8047B704700BF8B
:1028400080B483B000AF78600B467B8013467B700A
:102850007B78002B08D07B689B899AB27B881343D6
:102860009AB27B689A8109E07B689B899AB27B88DF
:10287000DB439BB213409AB27B689A810C37BD460A
:102880005DF8047B704700BF80B485B000AF78600E
:102890000B467B800023FB730023BB8100237B81DD
:1028A0007B681B8A9AB27B881340BB817B689B89BB
:1028B0009AB27B8813407B81BB89002B05D07B8932
:1028C000002B02D00123FB7301E00023FB73FB7B91
:1028D00018461437BD465DF8047B704780B483B05A
:1028E00000AF78600B467B807B88DB439AB27B68C5
:1028F0001A820C37BD465DF8047B704780B487B000
:1029000000AFF860084611461A4603467B810B4625
:102910003B811346FB800023FB820023BB82002304
:102920007B82FB681B89FB82FB681B8BBB82FB687D
:102930001B8C7B82FB8A23F00703FB82FA8A7B894C
:102940001343FB82BB8A23F4407323F00303BB824F
:10295000BB8A43F4807343F00103BB827B8A23F07C
:1029600022037B82FB881B019AB23B8913439AB2F4
:102970007B8A13437B82FB68FA8A1A81FB68BA8AD6
:102980001A83FB687A8A1A841C37BD465DF8047B7B
:10299000704700BF80B596B000AF08200121FEF758
:1029A00047FA4FF480200121FEF760FA4FF400103F
:1029B0000121FEF73DFA4FF480400121FEF774FA41
:1029C0004FF440733B65022387F85430002387F8A7
:1029D0005630012387F85730032387F8553007F125
:1029E000500336481946FFF7F7F834480821072204
:1029F000FFF792F9314809210722FFF78DF94FF4CB
:102A0000E1333B640023A7F844300023A7F84830A3
:102A10000023A7F846300023A7F84C300C23A7F872
:102A20004A3007F1400326481946FDF7D3FC2548F4
:102A3000FFF7BAF93B1D1846FFF7DEFA224BBB60E1
:102A400000233B6205237B61204BFB604FF48063D6
:102A5000FB610023BB6100233B614FF48073BB62C9
:102A600000237B624FF000637B600023FB623B1D11
:102A700014481946FFF76AFA114840210122FDF770
:102A800097FD10480121FFF7EDFA0D480121FDF7F0
:102A90005DFD0C233B700123FB7000237B70022340
:102AA000BB703B461846FFF7E1FD064810210122A6
:102AB000FFF7F4FA5837BD4680BD00BF000C024056
:102AC00000480040286002400448004064040020A0
:102AD00080B485B000AF786000231A462D4B9B5C14
:102AE0001B09FB73FB7B012B05D0FB7B022B02D068
:102AF000FB7B042B03D17B68FA7B1A7002E07B68B6
:102B000001221A7001231A46224B9B5C1B0299B2C8
:102B1000012301331F4AD35C9BB20A4613439AB286
:102B20007B685A8003231A461A4B9B5C1B0299B29E
:102B300003230133174AD35C9BB20A4613439AB26C
:102B40007B689A8000231A46124B9B5C0422134038
:102B5000DBB2002B07D07B685B889BB25B429BB2E9
:102B60009AB27B685A8000231A460A4B9B5C01226A
:102B70001340DBB2002B07D07B689B889BB25B4283
:102B80009BB29AB27B689A801437BD465DF8047B8D
:102B9000704700BF6404002080B586B000AF3B469C
:102BA00083E803000023FB750023BB8200237B82A4
:102BB0003B881BB2002B08DA0422FB7D1343FB7514
:102BC0003B889BB25B42BB8205E00822FB7D13433E
:102BD000FB753B88BB827B881BB2002B08DA012285
:102BE000FB7D1343FB757B889BB25B427B8205E0D8
:102BF0000222FB7D1343FB757B887B8200233B8293
:102C0000002307F118021344FA7D03F8102CBB8A45
:102C10009B093B823B8A43F001033B8201233A8AB2
:102C2000D2B207F118010B4403F8102CBB8A5B00E9
:102C30003B823B8A43F001033B82012301333A8A02
:102C4000D2B207F118010B4403F8102C7B8A9B09C0
:102C50003B823B8A43F001033B8203233A8AD2B290
:102C600007F118010B4403F8102C7B8A5B003B82B0
:102C70003B8A43F001033B82032301333A8AD2B2F9
:102C800007F118010B4403F8102C07F1080318464C
:102C9000FEF730FF1837BD4680BD00BF81F0004110
:102CA00002E000BF83F0004330B54FEA41044FEA31
:102CB000430594EA050F08BF90EA020F1FBF54EACC
:102CC000000C55EA020C7FEA645C7FEA655C00F068
:102CD000E2804FEA5454D4EB5555B8BF6D420CDD39
:102CE0002C4480EA020281EA030382EA000083EABC
:102CF000010180EA020281EA0303362D88BF30BD5C
:102D000011F0004F4FEA01314FF4801C4CEA1131B1
:102D100002D0404261EB410113F0004F4FEA033310
:102D20004CEA133302D0524263EB430394EA050F9B
:102D300000F0A780A4F10104D5F1200E0DDB02FA0A
:102D40000EFC22FA05F2801841F1000103FA0EF29E
:102D5000801843FA05F359410EE0A5F120050EF164
:102D6000200E012A03FA0EFC28BF4CF0020C43FA95
:102D700005F3C01851EBE37101F0004507D54FF0A2
:102D8000000EDCF1000C7EEB00006EEB0101B1F5F2
:102D9000801F1BD3B1F5001F0CD349085FEA300038
:102DA0004FEA3C0C04F101044FEA445212F5800F43
:102DB00080F09A80BCF1004F08BF5FEA500C50F1E0
:102DC000000041EB045141EA050130BD5FEA4C0CC3
:102DD000404141EB010111F4801FA4F10104E9D14C
:102DE00091F0000F04BF01460020B1FA81F308BF43
:102DF0002033A3F10B03B3F120020CDA0C3208DD0F
:102E000002F1140CC2F10C0201FA0CF021FA02F1E9
:102E10000CE002F11402D8BFC2F1200C01FA02F159
:102E200020FA0CFCDCBF41EA0C019040E41AA2BF7E
:102E300001EB0451294330BD6FEA04041F3C1CDA46
:102E40000C340EDC04F11404C4F1200220FA04F066
:102E500001FA02F340EA030021FA04F345EA030110
:102E600030BDC4F10C04C4F1200220FA02F001FAD2
:102E700004F340EA0300294630BD21FA04F0294654
:102E800030BD94F0000F83F4801306BF81F48011ED
:102E90000134013D4EE77FEA645C18BF7FEA655C60
:102EA00029D094EA050F08BF90EA020F05D054EA32
:102EB000000C04BF1946104630BD91EA030F1EBF37
:102EC0000021002030BD5FEA545C05D1400049413B
:102ED00028BF41F0004130BD14F580043CBF01F52E
:102EE000801130BD01F0004545F0FE4141F4700114
:102EF0004FF0000030BD7FEA645C1ABF19461046EF
:102F00007FEA655C1CBF0B46024650EA013406BFEF
:102F100052EA033591EA030F41F4002130BD00BFAE
:102F200090F0000F04BF0021704730B54FF480646B
:102F300004F132044FF000054FF0000150E700BFEC
:102F400090F0000F04BF0021704730B54FF480644B
:102F500004F1320410F0004548BF40424FF0000138
:102F60003EE700BF42004FEAE2014FEA31014FEA7B
:102F700002701FBF12F07F4393F07F4F81F06051CA
:102F8000704792F0000F14BF93F07F4F704730B539
:102F90004FF4607401F0004521F0004120E700BFCC
:102FA00050EA010208BF704730B54FF000050AE053
:102FB00050EA010208BF704730B511F0004502D554
:102FC000404261EB41014FF4806404F132045FEA56
:102FD000915C3FF4DCAE4FF003025FEADC0C18BFFB
:102FE00003325FEADC0C18BF033202EBDC02C2F1F1
:102FF000200300FA03FC20FA02F001FA03FE40EA83
:103000000E0021FA02F11444C1E600BF70B54FF082
:10301000FF0C4CF4E06C1CEA11541DBF1CEA135564
:1030200094EA0C0F95EA0C0F00F0DEF82C4481EACC
:10303000030621EA4C5123EA4C5350EA013518BFEC
:1030400052EA033541F4801143F4801338D0A0FBD9
:1030500002CE4FF00005E1FB02E506F00042E0FB86
:1030600003E54FF00006E1FB03569CF0000F18BF8C
:103070004EF0010EA4F1FF04B6F5007F64F5407434
:1030800004D25FEA4E0E6D4146EB060642EAC621C7
:1030900041EA55514FEAC52040EA5E504FEACE2E34
:1030A000B4F1FD0C88BFBCF5E06F1ED8BEF1004F37
:1030B00008BF5FEA500E50F1000041EB045170BDB3
:1030C00006F0004646EA010140EA020081EA0301F7
:1030D000B4EB5C04C2BFD4EB0C0541EA045170BDF3
:1030E00041F480114FF0000E013C00F3AB8014F16D
:1030F000360FDEBF002001F0004170BDC4F10004B6
:10310000203C35DA0C341BDC04F11404C4F1200536
:1031100000FA05F320FA04F001FA05F240EA020091
:1031200001F0004221F0004110EBD37021FA04F6C7
:1031300042EB06015EEA430E08BF20EAD37070BD81
:10314000C4F10C04C4F1200500FA04F320FA05F0E0
:1031500001FA04F240EA020001F0004110EBD370E2
:1031600041F100015EEA430E08BF20EAD37070BD52
:10317000C4F1200500FA05F24EEA020E20FA04F32B
:1031800001FA05F243EA020321FA04F001F00041DA
:1031900021FA04F220EA020000EBD3705EEA430E4B
:1031A00008BF20EAD37070BD94F0000F0FD101F07A
:1031B0000046400041EB010111F4801F08BF013CB3
:1031C000F7D041EA060195F0000F18BF704703F0F1
:1031D0000046520043EB030313F4801F08BF013D78
:1031E000F7D043EA0603704794EA0C0F0CEA135534
:1031F00018BF95EA0C0F0CD050EA410618BF52EAEE
:103200004306D1D181EA030101F000414FF00000F3
:1032100070BD50EA410606BF1046194652EA430601
:1032200019D094EA0C0F02D150EA013613D195EA75
:103230000C0F05D152EA03361CBF104619460AD1BD
:1032400081EA030101F0004141F0FE4141F47001C7
:103250004FF0000070BD41F0FE4141F4780170BDB7
:1032600070B54FF0FF0C4CF4E06C1CEA11541DBF1C
:103270001CEA135594EA0C0F95EA0C0F00F0A7F81E
:10328000A4EB050481EA030E52EA03354FEA01314B
:1032900000F088804FEA03334FF0805545EA13135E
:1032A00043EA12634FEA022245EA111545EA106526
:1032B0004FEA00260EF000419D4208BF964244F1BD
:1032C000FD0404F5407402D25B084FEA3202B61ADC
:1032D00065EB03055B084FEA32024FF480104FF4B0
:1032E000002CB6EB020E75EB030E22BFB61A754624
:1032F00040EA0C005B084FEA3202B6EB020E75EBB7
:10330000030E22BFB61A754640EA5C005B084FEA1E
:103310003202B6EB020E75EB030E22BFB61A7546EB
:1033200040EA9C005B084FEA3202B6EB020E75EBF6
:10333000030E22BFB61A754640EADC0055EA060EB7
:1033400018D04FEA051545EA16754FEA06164FEAFA
:10335000C30343EA52734FEAC2025FEA1C1CC0D1A6
:1033600011F4801F0BD141EA00014FF000004FF033
:10337000004CB6E711F4801F04BF01430020B4F1F4
:10338000FD0C88BFBCF5E06F3FF6AFAEB5EB030CAC
:1033900004BFB6EB020C5FEA500C50F1000041EBA9
:1033A000045170BD0EF0004E4EEA113114EB5C0476
:1033B000C2BFD4EB0C0541EA045170BD41F4801149
:1033C0004FF0000E013C90E645EA060E8DE60CEA51
:1033D000135594EA0C0F08BF95EA0C0F3FF43BAF6E
:1033E00094EA0C0F0AD150EA01347FF434AF95EA25
:1033F0000C0F7FF425AF104619462CE795EA0C0F09
:1034000006D152EA03353FF4FDAE1046194622E7D5
:1034100050EA410618BF52EA43067FF4C5AE50EAAF
:1034200041047FF40DAF52EA43057FF4EBAE12E79F
:103430004A0011D212F5001211D20DD56FF4787333
:10344000B3EB62520ED44FEAC12343F0004343EA88
:10345000505323FA02F070474FF00000704750EAD3
:10346000013002D14FF0FF3070474FF0000070473D
:1034700000000103040108023DD8E53E0C000100F4
:1034800064002C01A69B043F710BF73F0000803FB6
:103490000000803F00000000401F401F09434F4EC6
:1034A0005349474E45203A2025303862000000003D
:1034B0000D0A000020202020202020202020202075
:1034C00020202020202020202020202020202020FC
:1034D00020202020202050726F6A657420534520E0
:1034E000340D0A0D0A00000020202020202020207A
:1034F00020202020202020202020202020202020CC
:103500002020202020202020496E697469616C6988
:10351000736174696F6E730D0A0000005541525457
:1035200020657420525820444D4120496E697469C9
:10353000616C69736520617665632073756363658B
:103540007320210D0A0D0A00496E697469616C6966
:10355000736174696F6E204C4544730D0A0000005E
:10356000496E697469616C69736174696F6E206416
:103570007520626F75746F6E0D0A0000496E697474
:1035800069616C69736174696F6E20414443732093
:103590006574205369676E652074616368796D6531
:1035A0007472650D0A000000496E697469616C6986
:1035B000736174696F6E20456E636F646575720D1B
:1035C0000A000000496E697469616C69736174690D
:1035D0006F6E204441430D0A00000000496E69747B
:1035E00069616C69736174696F6E2054696D65728D
:1035F000730D0A00202020202020202020202020C1
:1036000020202020202046696E206465206C2769D8
:103610006E697469616C69736174696F6E20646549
:103620007320706572697068657269717565730D74
:103630000A0D0A00202020202020202020202020E9
:10364000202020202020202020202020202020207A
:10365000202044656D617272616765206475207316
:10366000776565700D0A0D0A00000000436F6E73E8
:1036700069676E652C4144435F74616368792C52BD
:10368000504D0D0A0000000025692C25692C256984
:1036900000000000737464696F2E633A20696E63E2
:1036A0007265617365204D41585F535452494E47CE
:0836B0005F53495A450A0D0061
:1036B80000000000010203040102030406070809D0
:1036C80000000000000000000100000000000000F1
:1036D80000000000000000000000000000000000E2
:1036E80000000000000000000000000000000000D2
:1036F80000000000000000000000000000000000C2
:1037080000000000000000000000000000000000B1
:103AE800000000000000000010000020007A030A17
:103AF8000000000000000000010203040607080996
:0400000508000000EF
:00000001FF
