:020000040800F2
:10000000600C0020ED0600085507000855070008A1
:1000100055070008550700085507000800000000B4
:10002000000000000000000000000000550700086C
:10003000550700080000000055070008D108000817
:100040005507000855070008550700085507000820
:100050005507000855070008550700085507000810
:100060005507000855070008550700085507000800
:1000700055070008550700085507000855070008F0
:1000800055070008550700085507000855070008E0
:1000900055070008550700085507000855070008D0
:1000A00055070008550700085507000855070008C0
:1000B00055070008550700085507000855070008B0
:1000C00055070008550700085507000855070008A0
:1000D0005507000855070008550700085507000890
:1000E0005507000855070008550700085507000880
:1000F0005507000855070008550700085507000870
:10010000550700085507000855070008550700085F
:10011000550700085507000855070008550700084F
:10012000550700085507000855070008550700083F
:10013000550700085507000855070008550700082F
:10014000550700085507000855070008550700081F
:10015000550700085507000855070008550700080F
:1001600055070008550700085507000855070008FF
:1001700055070008550700085507000855070008EF
:10018000550700085507000880B483B000AF034648
:100190003960FB7197F90730002B0BDA0D49FB79B9
:1001A00003F00F03043B3A68D2B21201D2B20B44FF
:1001B0001A7609E0084997F907303A68D2B2120175
:1001C000D2B20B4483F800230C37BD465DF8047BA4
:1001D000704700BF00ED00E000E100E080B582B0B4
:1001E00000AF78607B68B3F1807F01D3012311E019
:1001F0000A4A7B6823F07F43013B53604FF0FF3096
:100200000F21FFF7C1FF054B00229A60034B072225
:100210001A60002318460837BD4680BD10E000E094
:1002200080B500AF00BF064B1B68064AA2FB032344
:100230009B0C1846FFF7D2FF0346002BF3D180BD7D
:100240003C04002083DE1B4380B400AF064B1B68D8
:10025000002B04D0044B1B68013B034A1360BD46CE
:100260005DF8047B704700BF5004002080B400AFED
:10027000064B4FF47A721A6000BF044B1B68002BC8
:10028000FBD1BD465DF8047B704700BF50040020E1
:1002900080B582B000AF786001E0FFF7E7FF7B68D0
:1002A0005A1E7A60002BF8D10837BD4680BD00BFCA
:1002B00080B58AB000AF7860396000237B6200238C
:1002C0003B620023FB610023BB617B681B8A9BB2FE
:1002D0007B627B6A23F440537B623B68DB881A466F
:1002E0007B6A13437B627B6A9AB27B681A827B6863
:1002F0009B899BB27B627B6A23F4B05323F00C038F
:100300007B623B689A883B681B8913439AB23B68BF
:100310005B8913439BB21A467B6A13437B627B6AF9
:100320009AB27B689A817B689B8A9BB27B627B6A6C
:1003300023F440737B623B689B891A467B6A1343B4
:100340007B627B6A9AB27B689A8207F1080318463F
:1003500000F0C4FA7B68314A934203D07B68304A8C
:10036000934202D17B693B6201E03B693B627B685F
:100370009B899BB29BB21BB2002B0CDA3A6A1346E4
:100380009B0013449A001A443B681B685B00B2FB55
:10039000F3F3FB610BE03A6A13469B0013449A00A7
:1003A0001A443B681B689B00B2FBF3F3FB61FB69DB
:1003B0001C4AA2FB03235B091B017B627B6A1B09AE
:1003C000642202FB03F3FA69D31ABB617B689B8941
:1003D0009BB29BB21BB2002B0CDABB69DB00323341
:1003E000104AA2FB03235B0903F007037A6A134355
:1003F0007B620BE0BB691B0132330A4AA2FB032379
:100400005B0903F00F037A6A13437B627B6A9AB23B
:100410007B681A812837BD4680BD00BF00100140AF
:10042000001401401F85EB5180B483B000AF7860A9
:100430000B46FB70FB78002B08D07B689B899BB236
:1004400043F400539AB27B689A8107E07B689B89EA
:100450009BB223F400539AB27B689A810C37BD4655
:100460005DF8047B704700BF80B483B000AF786054
:100470000B467B807B88C3F308039AB27B689A8023
:100480000C37BD465DF8047B704700BF80B485B073
:1004900000AF78600B467B800023FB737B681B8872
:1004A0009AB27B8813409BB2002B02D00123FB73CE
:1004B00001E00023FB73FB7B18461437BD465DF853
:1004C000047B704780B586B000AF0120012100F0A9
:1004D000AFFA4FF00050012100F0C8FA30233B6121
:1004E00003233B750023FB7507F1100310481946E1
:1004F00001F0E2F800F03CF83C233B600023FB6095
:1005000000237B603B460020194600F03FF83B4645
:100510001020194600F03AF80020012100F068F898
:100520001020012100F064F81837BD4680BD00BFDF
:100530000000024080B582B000AF03460A46FB804F
:100540001346BB80FB880020194600F09BF8BB884F
:100550000020194600F0B0F80020012100F06CF8EE
:100560001020012100F068F80837BD4680BD00BFAB
:1005700080B500AF4FF00050012100F0B3FA4FF00A
:100580000050002100F0AEFA80BD00BF80B485B0FD
:1005900000AF786039600023FB600023BB60134B21
:1005A0001B68FB607B6840F6FE7202FA03F3DB43D4
:1005B000FA681340FB603B681A683B685B681A4343
:1005C0003B689B681A433B68DB681343BB607B68EE
:1005D000BA6802FA03F3FA681343FB60034AFB6844
:1005E00013601437BD465DF8047B7047007400400B
:1005F00080B483B000AF78600B46FB70FB78002BB3
:1006000009D00C490B4B1A687B68012000FA03F3F0
:1006100013430B6009E00749064B1A687B68012009
:1006200000FA03F3DB4313400B600C37BD465DF863
:10063000047B70470074004080B483B000AF7860E2
:100640000B46FB70FB78002B0AD00D490C4B5A6807
:100650007B681B0918460123834013434B600AE063
:100660000749074B5A687B681B09184601238340DA
:10067000DB4313404B600C37BD465DF8047B70478D
:100680000074004080B485B000AF78600B467B807A
:100690000023FB60074BFB60FA687B681344083358
:1006A000FB60FB681A467B8813601437BD465DF813
:1006B000047B70470074004080B485B000AF786060
:1006C0000B467B800023FB60074BFB60FA687B686E
:1006D00013441433FB60FB681A467B88136014379D
:1006E000BD465DF8047B70470074004080B582B061
:1006F00000AF124B7B60124B3B6007E03B681A1D5A
:100700003A607A68111D796012681A603B680D4A78
:100710009342F3D30C480D494FF000028842B8BF12
:1007200040F8042BFADBDFF82800016841F470017F
:10073000016000F013F80837BD4680BD581A000864
:10074000000000205004002050040020600400201D
:1007500088ED00E080B400AFFEE700BF80B500AFD9
:1007600000F046F81C484FF4805101F033F81B4864
:1007700000F044FA1A4800F067FA194B1B88184633
:10078000184900F06BF80C23013B012202FA03F335
:100790009AB2124B1B885B089BB213449AB2124B5D
:1007A0001A800C23013B012202FA03F39AB20B4B8D
:1007B0001B885B089BB2D31A9AB20C4B1A800A4B67
:1007C0001A880A4B1B8810461946FFF7B3FE012012
:1007D000FFF75EFDC6E700BF000C02405404002096
:1007E00056040020580400205A0400205C04002015
:1007F00080B500AFFFF714FD01F046F80F4800F098
:1008000003FF0F4800F000FF0E4800F0FDFE00F06F
:1008100043F80D4800F0F8FE0C4800F0F5FE00F03B
:100820009DF90B4800F0F0FE0A4800F0EDFEFFF7DE
:1008300049FE094800F0E8FE80BD00BF1419000819
:10084000681900088C190008A4190008C4190008C8
:10085000DC190008FC190008141A000880B485B0DF
:1008600000AF0346B960FB81FB8907EE903AF8EED2
:10087000E77A9FED087A67EE877AFCEEE77AC7EDB4
:10088000017ABB889AB2BB681A801437BD465DF8FE
:10089000047B7047710BF73F80B582B000AF082032
:1008A000012100F0C5F84FF440533B6001233B7138
:1008B0000023BB7103237B710023FB713B4603487C
:1008C000194600F0F9FE0837BD4680BD000C024015
:1008D00080B500AFFFF7B8FC80BD00BF80B489B021
:1008E00000AF78600023BB6100237B610023FB61C4
:1008F00002233B610023FB600223BB60484B9B68E3
:1009000003F00C03BB61BB69042B07D0082B09D093
:10091000002B3FD17B68434A1A603FE07B68424A24
:100920001A603BE03E4B5B6803F480039B0DFB6069
:100930003B4B5B6803F03F03BB60FB68002B0DD0B3
:10094000394ABB68B2FBF3F2354B596847F6C073BE
:100950000B409B0903FB02F3FB610CE0314ABB68CF
:10096000B2FBF3F22E4B596847F6C0730B409B095C
:1009700003FB02F3FB612A4B5B6803F440331B0C5F
:1009800001335B003B61FA693B69B2FBF3F27B68C0
:100990001A6003E07B68234A1A6000BF204B9B6803
:1009A00003F0F003BB61BB691B09BB611F4ABB6954
:1009B00013441B78DBB27B617B681A687B69DA4081
:1009C0007B685A60164B9B6803F4E053BB61BB69BC
:1009D0009B0ABB61154ABB6913441B78DBB27B6180
:1009E0007B685A687B69DA407B689A600C4B9B682D
:1009F00003F46043BB61BB695B0BBB610B4ABB6922
:100A000013441B78DBB27B617B685A687B69DA40F0
:100A10007B68DA602437BD465DF8047B704700BF11
:100A2000003802400024F40040787D0100000020DE
:100A300080B483B000AF78600B46FB70FB78002B6E
:100A400006D00949084B1A6B7B6813430B6306E019
:100A50000549054B1A6B7B68DB4313400B630C376E
:100A6000BD465DF8047B70470038024080B483B017
:100A700000AF78600B46FB70FB78002B06D009496D
:100A8000084B1A6C7B6813430B6406E00549054B61
:100A90001A6C7B68DB4313400B640C37BD465DF872
:100AA000047B70470038024080B483B000AF7860A8
:100AB0000B46FB70FB78002B06D00949084B5A6C9B
:100AC0007B6813434B6406E00549054B5A6C7B6811
:100AD000DB4313404B640C37BD465DF8047B704725
:100AE0000038024080B483B000AF78600B46FB70E2
:100AF000FB78002B06D00949084B1A6A7B68134320
:100B00000B6206E00549054B1A6A7B68DB4313401C
:100B10000B620C37BD465DF8047B7047003802401D
:100B200080B483B000AF78600B46FB70FB78002B7D
:100B300006D00949084B5A6A7B6813434B6206E0AA
:100B40000549054B5A6A7B68DB4313404B620C37FF
:100B5000BD465DF8047B70470038024080B588B020
:100B600000AF02200121FFF763FF01200121FFF701
:100B70005FFF4FF480700121FFF796FF0123BB61F7
:100B800003233B770023FB7707F118031848194626
:100B900000F092FD0423BB6103233B770023FB7726
:100BA00007F118031348194600F086FD00F072F8AB
:100BB0003B46184600F0D0F800233B6000237B71D1
:100BC00000233B610023FB600023BB6000233B71DB
:100BD0003B460948194600F06BF80748012100F030
:100BE000D9F80548022100F0F3F92037BD4680BD51
:100BF00000040240000002400020014080B582B0A5
:100C000000AF78600F4808210122012300F0DEF8D0
:100C10000C4800F0A5F900BF0A48022100F0BEF917
:100C20000346002BF8D0074800F0AAF903461A46FD
:100C30007B681A800348022100F0CAF90837BD46D4
:100C400080BD00BF0020014080B582B000AF786059
:100C50000F4802210122012300F0B8F80C4800F0EF
:100C60007FF900BF0A48022100F098F90346002BE3
:100C7000F8D0074800F084F903461A467B681A80CA
:100C80000348022100F0A4F90837BD4680BD00BF2B
:100C90000020014080B500AF4FF480700121FFF7C4
:100CA0003FFF4FF480700021FFF73AFF80BD00BF87
:100CB00080B485B000AF786039600023FB6000230A
:100CC000FB727B685B68FB60FB6823F0407323F476
:100CD0008073FB603B681B791A023B681B681343F7
:100CE000FA681343FB607B68FA685A607B689B680C
:100CF000FB60FA68174B1340FB603B681A693B685E
:100D0000DB681A433B689B681A433B685B795B006E
:100D10001343FA681343FB607B68FA689A607B6848
:100D2000DB6AFB60FB6823F47003FB603B681B7DA0
:100D3000013BDAB2FB7A1343FB72FB7A1B05FA68BC
:100D40001343FB607B68FA68DA621437BD465DF8CE
:100D5000047B7047FDF7FFC080B483B000AF7860BC
:100D60007B6800221A607B6800221A717B6800226F
:100D70005A717B6800229A607B680022DA607B6887
:100D800000221A617B6801221A750C37BD465DF896
:100D9000047B704780B483B000AF78600B46FB7073
:100DA000FB78002B06D07B689B6843F001027B68D0
:100DB0009A6005E07B689B6823F001027B689A607B
:100DC0000C37BD465DF8047B704700BF80B485B02A
:100DD00000AF7860084611461A460346FB700B4682
:100DE000BB7013467B700023FB600023BB60FB7865
:100DF000092B23D97B68DB68FB60FB78A3F10A022F
:100E000013465B001344072202FA03F3BB60BB687E
:100E1000DB43FA681340FB607978FB78A3F10A02A0
:100E200013465B00134401FA03F3BB60FA68BB6826
:100E30001343FB607B68FA68DA601EE07B681B691D
:100E4000FB60FA7813465B001344072202FA03F3AF
:100E5000BB60BB68DB43FA681340FB607978FA78C3
:100E600013465B00134401FA03F3BB60FA68BB68E6
:100E70001343FB607B68FA681A61BB78062B21D8A4
:100E80007B685B6BFB60BB785A1E13469B00134468
:100E90001F2202FA03F3BB60BB68DB43FA6813400E
:100EA000FB60F978BB785A1E13469B00134401FA85
:100EB00003F3BB60FA68BB681343FB607B68FA68A6
:100EC0005A6347E0BB780C2B21D87B681B6BFB6017
:100ED000BB78DA1F13469B0013441F2202FA03F368
:100EE000BB60BB68DB43FA681340FB60F978BB78F2
:100EF000DA1F13469B00134401FA03F3BB60FA6840
:100F0000BB681343FB607B68FA681A6322E07B6866
:100F1000DB6AFB60BB78A3F10D0213469B00134410
:100F20001F2202FA03F3BB60BB68DB43FA6813407D
:100F3000FB60F978BB78A3F10D0213469B001344C4
:100F400001FA03F3BB60FA68BB681343FB607B687C
:100F5000FA68DA621437BD465DF8047B704700BF5B
:100F600080B483B000AF78607B689B6843F08042B8
:100F70007B689A600C37BD465DF8047B704700BF04
:100F800080B483B000AF78607B68DB6C9BB218469E
:100F90000C37BD465DF8047B704700BF80B485B058
:100FA00000AF78600B46FB700023FB737B681A6808
:100FB000FB781340002B02D00123FB7301E00023D8
:100FC000FB73FB7B18461437BD465DF8047B704706
:100FD00080B483B000AF78600B46FB70FB78DA43D7
:100FE0007B681A600C37BD465DF8047B704700BF14
:100FF00080B582B000AF0346FB7100BF07484021B7
:10100000FFF744FA0346012BF8D1FB799BB2034862
:101010001946FFF729FA0837BD4680BD0048004051
:1010200080B483B000AF78600B46FB707B68FA78C1
:101030001A70012318460C37BD465DF8047B7047D3
:1010400080B485B000AF786039600023FB600AE0AF
:101050007B685A1C7A603A68511C396012781A70A1
:10106000FB680133FB603B681B78002BF0D1FB6809
:1010700018461437BD465DF8047B704780B586B0CE
:1010800000AFF8607A603B600B46FB7200237B6127
:101090007B68013B7B603B68092B10D93B681E4A8B
:1010A000A2FB0323DB08FA7AF86811467A68FFF797
:1010B000E5FF78617B69FA681344FB6011E00DE09D
:1010C000FB7AF8681946FFF7ABFFFB680133FB605A
:1010D0007B6901337B617B68013B7B607B68002B14
:1010E000EEDC39680C4BA3FB0123DA0813469B00A6
:1010F00013445B00CA1AD3B23033DBB2F868194626
:10110000FFF78EFF02467B6913447B617B691846BB
:101110001837BD4680BD00BFCDCCCCCC90B587B0D4
:1011200000AFF8607A603B600B46FB7200237B6186
:101130003B68002B03DA3B685B423B6101E03B68A4
:101140003B617B68013B7B603B69092B25D93B6890
:10115000002B0FDA3B69314AA2FB0323DB085B4219
:101160001C46FB7AF86819467A682346FFF7D6FFD3
:1011700078610DE03B69294AA2FB0323DB081C468A
:10118000FB7AF86819467A682346FFF7C7FF78614B
:101190007B69FA681344FB6025E03B68002B02DAA8
:1011A0007B68013B7B600DE0FB7AF8681946FFF72E
:1011B00037FFFB680133FB607B6901337B617B6830
:1011C000013B7B607B68002BEEDC3B68002B0ADA7E
:1011D000F8682D21FFF724FF02467B6913447B61E9
:1011E000FB680133FB6039690C4BA3FB0123DA0870
:1011F00013469B0013445B00CA1AD3B23033DBB2F0
:10120000F8681946FFF70CFF02467B6913447B61BF
:101210007B6918461C37BD4690BD00BFCDCCCCCCF9
:1012200090B589B002AFF8607A601A460B46FB723F
:101230001346BB7200237B617B68013B7B60BB6A0A
:101240001B09002B13D0BB6A1B09FA7ABC7A0093E6
:10125000F86811467A682346FFF7E2FF02467B6989
:1012600013447B617B69FA681344FB6011E00DE075
:10127000FB7AF8681946FFF7D3FEFB680133FB6081
:101280007B6901337B617B68013B7B607B68002B62
:10129000EEDCBB6A03F00F03092B0BD8BB6ADBB291
:1012A00003F00F03DBB23033DBB2F8681946FFF707
:1012B000B7FE19E0BB7A002B0BD0BB6ADBB203F0A0
:1012C0000F03DBB23733DBB2F8681946FFF7A8FE2D
:1012D0000AE0BB6ADBB203F00F03DBB25733DBB2C9
:1012E000F8681946FFF79CFE7B6901337B617B69D7
:1012F00018461C37BD4690BD90B58BB002AFF86064
:10130000B9607A603B600023BB6100237B61FB68AE
:10131000002B02D0FB6800221A70FCE07B681B786F
:10132000252B0BD0FB685A1CFA607A68511C796037
:1013300012781A707B6901337B61ECE07B680133C2
:101340001B78252B0BD1FB685A1CFA6025221A70DA
:101350007B6802337B607B6901337B61DBE02023A8
:10136000FB770023BB777B6801337B607B681B784E
:10137000302B04D13023FB777B6801337B600EE098
:10138000BB7F1A46920013445B00DAB27B681B787D
:101390001344DBB2303BBB777B6801337B607B68F7
:1013A0001B782F2B03D97B681B78392BE8D9BA7FA0
:1013B0007B6913441A46BB689A4205D9BB68DAB206
:1013C0007B69DBB2D31ABB777B681B78583B202B39
:1013D00000F2938001A252F823F000BFB31400087A
:1013E000FB140008FB140008FB140008FB140008A1
:1013F000FB140008FB140008FB140008FB14000891
:10140000FB140008FB140008E51400086114000830
:10141000FB140008FB140008FB140008FB14000870
:1014200061140008FB140008FB140008FB140008FA
:10143000FB140008FB140008FB140008FB14000850
:10144000FB140008FB140008D1140008FB1400086A
:101450007B140008FB140008FB1400089514000816
:10146000BC7F3B681A1D3A601B68FA7FF86811461A
:101470002246FFF753FEB86142E0BC7F3B681A1D6D
:101480003A601B68FA7FF86811462246FFF7F6FDBE
:10149000B86135E0BC7F3B681A1D3A601B68FA7F73
:1014A0000093F868114622460023FFF7B9FEB861A1
:1014B00026E0BC7F3B681A1D3A601B68FA7F0093E8
:1014C000F868114622460123FFF7AAFEB86117E02B
:1014D0003B681A1D3A601B68F8681946FFF7B0FDB3
:1014E000B8610DE03B681A1D3A601B68DBB2F86812
:1014F0001946FFF795FDB86102E04FF0FF3325E094
:101500007B6801337B60BB69FA681344FB607A69CE
:10151000BB6913447B617B681B78002B04D07A691C
:10152000BB689A42FFF4FAAE7A69BB689A4203D26A
:10153000FB6800221A7008E0FB68013BFB60FB6857
:1015400000221A707B69013B7B617B691846243756
:10155000BD4690BD80B584B000AFF860B9607A60D8
:10156000F8686421BA687B68FFF7C6FE0346184630
:101570001037BD4680BD00BFB0B5A6B000AFF86063
:10158000B9607A60144B07F110041D460FCD0FC4EB
:101590000FCD0FC42B68236007F134031846B968D8
:1015A0007A68FFF7D7FF0346632B09DD0B4B1B68F7
:1015B000DB6807F110021046194600F059F8FEE703
:1015C00007F134031846F96800F052F8034618464C
:1015D0009837BD46B0BD00BF341A0008380400205B
:1015E00080B582B000AF78603960064B1B689B689D
:1015F000184679683A68FFF7BFFF03461846083770
:10160000BD4680BD380400200FB480B582B000AF65
:1016100007F114033B6038693968FFF7E1FF786030
:101620007B6818460837BD46BDE8804004B0704767
:1016300080B582B000AF786039600C4B1B689A6847
:101640003B689A4205D0094B1B68DA683B689A42AE
:1016500006D17B68DBB21846FFF7CAFC7B6801E065
:101660004FF0FF3318460837BD4680BD38040020D0
:1016700080B584B000AF786039600023FB6012E071
:101680007B681B7818463968FFF7D2FF0346B3F131
:10169000FF3F02D14FF0FF330AE0FB680133FB60EC
:1016A0007B6801337B607B681B78002BE8D1FB688B
:1016B00018461037BD4680BD80B487B000AF786053
:1016C000396000237B6100233B610023FB60002322
:1016D0007B6176E07B69012202FA03F33B613B68A0
:1016E0001A683B691340FB60FA683B699A4265D10E
:1016F0007B681A687B695B00194603238B40DB43D8
:101700001A407B681A607B681A683B681B79194627
:101710007B695B0001FA03F31A437B681A603B683C
:101720001B79012B03D03B681B79022B2ED17B68E0
:101730009A687B695B00194603238B40DB431A40A0
:101740007B689A607B689A683B685B7919467B691D
:101750005B0001FA03F31A437B689A607B685A685E
:101760007B699BB2194601238B40DB431A407B689F
:101770005A607B685B683A68927911467A6992B2DE
:1017800001FA02F292B21A437B685A607B68DA6807
:101790007B699BB25B00032101FA03F3DB431A4030
:1017A0007B68DA607B68DA683B68DB7919467B69BD
:1017B0005B0001FA03F31A437B68DA607B6901334B
:1017C0007B617B690F2B85D91C37BD465DF8047B97
:1017D000704700BF80B483B000AF78600B467B8059
:1017E0007B685A697B885A407B685A610C37BD46D2
:1017F0005DF8047B704700BF80B485B000AF7860AF
:101800000B467B8013467B700023FB600023BB608C
:101810007B787A8802F0070292009340FB607B8815
:10182000DB089BB218467B88DB089BB21A467B68B4
:10183000083253F822207B8803F007039B001946E7
:101840000F238B40DB4302EA03017B6800F10802AF
:1018500043F822107B88DB089BB21A467B6808326B
:1018600053F82220FB681343BB607B88DB089BB2E4
:101870001A467B680832B96843F822101437BD460F
:101880005DF8047B704700BF80B586B000AF0820CC
:101890000121FFF7CDF84FF480200121FFF7E6F892
:1018A0004FF440733B6102233B750023BB7501235A
:1018B000FB7503237B7507F1100311481946FFF7E9
:1018C000FBFE0F4809210722FFF796FF4FF4E13393
:1018D0003B600023BB8000233B810023FB8000236F
:1018E000BB810C237B813B4606481946FEF7E0FC92
:1018F00004480121FEF798FD1837BD4680BD00BFA2
:10190000000C0240004800400C000000A69B043F71
:10191000710BF73F20202020202020202020202095
:1019200020202020202020202020202020202020B7
:1019300020202020202050726F6A6574205345209B
:101940003420202020202020202020202020202083
:101950002020202020202020202020202020202087
:101960002020200A0D0A0D00555341525420496E83
:10197000697469616C69736520617665632073754C
:101980006363657320210A0D00000000496E6974CD
:1019900069616C69736174696F6E204C4544730AA8
:1019A0000D0000004C45447320496E697469616CF8
:1019B0006973652061766563207375636365732061
:1019C000210A0D00496E697469616C6973617469FB
:1019D0006F6E204144430A0D000000004144432043
:1019E000496E697469616C6973652061766563200D
:1019F00073756363657320210A0D0000496E697475
:101A000069616C69736174696F6E204441430A0DAA
:101A10000000000044414320496E697469616C69AB
:101A20007365206176656320737563636573202138
:101A30000A0D0000737464696F2E633A20696E6347
:101A40007265617365204D41585F535452494E474A
:081A50005F53495A450A0D00DD
:101A5800000000000102030401020304060708094C
:101A6800000000000000000001000000000000006D
:101A7800000000000000000000000000000000005E
:101A8800000000000000000000000000000000004E
:101A9800000000000000000000000000000000003E
:101AA800000000000000000000000000000000002E
:101E8800000000000000000010000020007A030A93
:101E98000000000000000000010203040607080912
:0400000508000000EF
:00000001FF
